{
  "address": "0x56B3c656F20b45A5e656c375C3fEB6Ed4f886689",
  "abi": [
    {
      "inputs": [
        {
          "internalType": "address",
          "name": "_messenger",
          "type": "address"
        },
        {
          "internalType": "address",
          "name": "_usdc",
          "type": "address"
        }
      ],
      "stateMutability": "nonpayable",
      "type": "constructor"
    },
    {
      "inputs": [
        {
          "internalType": "uint256",
          "name": "amount",
          "type": "uint256"
        },
        {
          "internalType": "uint32",
          "name": "destDomain",
          "type": "uint32"
        },
        {
          "internalType": "address",
          "name": "destMintRecipient",
          "type": "address"
        },
        {
          "internalType": "address",
          "name": "destCaller",
          "type": "address"
        },
        {
          "internalType": "uint256",
          "name": "maxFee",
          "type": "uint256"
        },
        {
          "internalType": "uint32",
          "name": "minFinalityThreshold",
          "type": "uint32"
        },
        {
          "internalType": "bytes",
          "name": "hookData",
          "type": "bytes"
        }
      ],
      "name": "bridgeUSDCV2",
      "outputs": [
        {
          "internalType": "bytes32",
          "name": "",
          "type": "bytes32"
        }
      ],
      "stateMutability": "nonpayable",
      "type": "function"
    },
    {
      "inputs": [],
      "name": "messenger",
      "outputs": [
        {
          "internalType": "contract ITokenMessengerV2",
          "name": "",
          "type": "address"
        }
      ],
      "stateMutability": "view",
      "type": "function"
    },
    {
      "inputs": [],
      "name": "usdc",
      "outputs": [
        {
          "internalType": "address",
          "name": "",
          "type": "address"
        }
      ],
      "stateMutability": "view",
      "type": "function"
    }
  ],
  "transactionHash": "0xca389386d16f39529370c7986c1e9aa0202d9b8fe85287d93a24cc30a953cf9b",
  "args": [
    "0x9f3B8679c73C2Fef8b59B4f3444d4e156fb70AA5",
    "0x1c7D4B196Cb0C7B01d743Fbc6116a902379C7238"
  ],
  "numDeployments": 1,
  "solcInputHash": "5ae45d0bd09e265b870044419c9f05ac",
  "bytecode": "0x60c060405234801561001057600080fd5b5060405161066c38038061066c83398101604081905261002f91610062565b6001600160a01b039182166080521660a052610095565b80516001600160a01b038116811461005d57600080fd5b919050565b6000806040838503121561007557600080fd5b61007e83610046565b915061008c60208401610046565b90509250929050565b60805160a0516105916100db60003960008181608f015281816101100152818161024e0152610308015260008181604b0152818161021f01526102be01526105916000f3fe608060405234801561001057600080fd5b50600436106100415760003560e01c80633cb747bf146100465780633e413bee1461008a578063506c3f00146100b1575b600080fd5b61006d7f000000000000000000000000000000000000000000000000000000000000000081565b6040516001600160a01b0390911681526020015b60405180910390f35b61006d7f000000000000000000000000000000000000000000000000000000000000000081565b6100c46100bf3660046103d9565b6100d2565b604051908152602001610081565b6040517f23b872dd000000000000000000000000000000000000000000000000000000008152336004820152306024820152604481018990526000907f00000000000000000000000000000000000000000000000000000000000000006001600160a01b0316906323b872dd906064016020604051808303816000875af1158015610161573d6000803e3d6000fd5b505050506040513d601f19601f8201168201806040525081019061018591906104a1565b6101ef576040517f08c379a000000000000000000000000000000000000000000000000000000000815260206004820152601460248201527f55534443207472616e73666572206661696c6564000000000000000000000000604482015260640160405180910390fd5b6040517f095ea7b30000000000000000000000000000000000000000000000000000000081526001600160a01b037f000000000000000000000000000000000000000000000000000000000000000081166004830152602482018b90527f0000000000000000000000000000000000000000000000000000000000000000169063095ea7b3906044016020604051808303816000875af1158015610297573d6000803e3d6000fd5b505050506040513d601f19601f820116820180604052508101906102bb91906104a1565b507f00000000000000000000000000000000000000000000000000000000000000006001600160a01b031663779b432d8a8a6103068b6001600160a01b03166001600160a01b031690565b7f00000000000000000000000000000000000000000000000000000000000000006001600160a01b038c168b8b8b8b6040518a63ffffffff1660e01b8152600401610359999897969594939291906104ca565b6020604051808303816000875af1158015610378573d6000803e3d6000fd5b505050506040513d601f19601f8201168201806040525081019061039c9190610542565b9998505050505050505050565b803563ffffffff811681146103bd57600080fd5b919050565b80356001600160a01b03811681146103bd57600080fd5b60008060008060008060008060e0898b0312156103f557600080fd5b8835975061040560208a016103a9565b965061041360408a016103c2565b955061042160608a016103c2565b94506080890135935061043660a08a016103a9565b925060c089013567ffffffffffffffff8082111561045357600080fd5b818b0191508b601f83011261046757600080fd5b81358181111561047657600080fd5b8c602082850101111561048857600080fd5b6020830194508093505050509295985092959890939650565b6000602082840312156104b357600080fd5b815180151581146104c357600080fd5b9392505050565b60006101008b835263ffffffff808c1660208501528a60408501526001600160a01b038a1660608501528860808501528760a085015280871660c0850152508060e08401528381840152506101208385828501376000838501820152601f909301601f19169091019091019998505050505050505050565b60006020828403121561055457600080fd5b505191905056fea2646970667358221220030f4c61b8a20b3fde3399535e8270494f09acecb032e416c1e6c5af2fb3cc0e64736f6c63430008160033",
  "devdoc": {
    "details": "Used by SourceChainInitiator to bridge USDC to InstantAggregator with hook data",
    "kind": "dev",
    "methods": {
      "bridgeUSDCV2(uint256,uint32,address,address,uint256,uint32,bytes)": {
        "params": {
          "amount": "Amount of USDC to bridge",
          "destCaller": "Address that can call the hook (InstantAggregator)",
          "destDomain": "Circle CCTP destination domain ID",
          "destMintRecipient": "Address to receive minted USDC (InstantAggregator)",
          "hookData": "Custom data for hook (requestId)",
          "maxFee": "Maximum fee for fast finality (0 for standard)",
          "minFinalityThreshold": "Finality threshold (2000=standard, 1000=fast)"
        },
        "returns": {
          "_0": "messageHash CCTP message hash"
        }
      }
    },
    "title": "CctpBridger",
    "version": 1
  },
  "userdoc": {
    "kind": "user",
    "methods": {
      "bridgeUSDCV2(uint256,uint32,address,address,uint256,uint32,bytes)": {
        "notice": "Bridge USDC via CCTP v2 with hook data"
      }
    },
    "notice": "Wrapper contract for Circle CCTP v2 depositForBurnWithHook",
    "version": 1
  },
  "storageLayout": {
    "storage": [],
    "types": null
  }
}