{
  "address": "0x17A64FAaf1Db8f1AFDe207D16Df7aA5F23D5deF5",
  "abi": [
    {
      "inputs": [
        {
          "internalType": "address",
          "name": "_endpoint",
          "type": "address"
        },
        {
          "internalType": "address",
          "name": "_usdcToken",
          "type": "address"
        },
        {
          "internalType": "address",
          "name": "_cctpBridger",
          "type": "address"
        },
        {
          "internalType": "address",
          "name": "_owner",
          "type": "address"
        }
      ],
      "stateMutability": "nonpayable",
      "type": "constructor"
    },
    {
      "inputs": [],
      "name": "InvalidDelegate",
      "type": "error"
    },
    {
      "inputs": [],
      "name": "InvalidEndpointCall",
      "type": "error"
    },
    {
      "inputs": [],
      "name": "LzTokenUnavailable",
      "type": "error"
    },
    {
      "inputs": [
        {
          "internalType": "uint32",
          "name": "eid",
          "type": "uint32"
        }
      ],
      "name": "NoPeer",
      "type": "error"
    },
    {
      "inputs": [
        {
          "internalType": "uint256",
          "name": "msgValue",
          "type": "uint256"
        }
      ],
      "name": "NotEnoughNative",
      "type": "error"
    },
    {
      "inputs": [
        {
          "internalType": "address",
          "name": "addr",
          "type": "address"
        }
      ],
      "name": "OnlyEndpoint",
      "type": "error"
    },
    {
      "inputs": [
        {
          "internalType": "uint32",
          "name": "eid",
          "type": "uint32"
        },
        {
          "internalType": "bytes32",
          "name": "sender",
          "type": "bytes32"
        }
      ],
      "name": "OnlyPeer",
      "type": "error"
    },
    {
      "inputs": [
        {
          "internalType": "address",
          "name": "owner",
          "type": "address"
        }
      ],
      "name": "OwnableInvalidOwner",
      "type": "error"
    },
    {
      "inputs": [
        {
          "internalType": "address",
          "name": "account",
          "type": "address"
        }
      ],
      "name": "OwnableUnauthorizedAccount",
      "type": "error"
    },
    {
      "inputs": [
        {
          "internalType": "address",
          "name": "token",
          "type": "address"
        }
      ],
      "name": "SafeERC20FailedOperation",
      "type": "error"
    },
    {
      "anonymous": false,
      "inputs": [
        {
          "indexed": true,
          "internalType": "uint32",
          "name": "chainEid",
          "type": "uint32"
        },
        {
          "indexed": false,
          "internalType": "address",
          "name": "aggregator",
          "type": "address"
        }
      ],
      "name": "AggregatorRegistered",
      "type": "event"
    },
    {
      "anonymous": false,
      "inputs": [
        {
          "indexed": true,
          "internalType": "bytes32",
          "name": "transferId",
          "type": "bytes32"
        },
        {
          "indexed": true,
          "internalType": "bytes32",
          "name": "cctpMessageHash",
          "type": "bytes32"
        },
        {
          "indexed": false,
          "internalType": "uint256",
          "name": "amount",
          "type": "uint256"
        }
      ],
      "name": "CCTPBurnInitiated",
      "type": "event"
    },
    {
      "anonymous": false,
      "inputs": [
        {
          "indexed": true,
          "internalType": "uint32",
          "name": "chainEid",
          "type": "uint32"
        },
        {
          "indexed": false,
          "internalType": "uint32",
          "name": "cctpDomain",
          "type": "uint32"
        }
      ],
      "name": "CCTPDomainRegistered",
      "type": "event"
    },
    {
      "anonymous": false,
      "inputs": [
        {
          "indexed": true,
          "internalType": "address",
          "name": "previousOwner",
          "type": "address"
        },
        {
          "indexed": true,
          "internalType": "address",
          "name": "newOwner",
          "type": "address"
        }
      ],
      "name": "OwnershipTransferred",
      "type": "event"
    },
    {
      "anonymous": false,
      "inputs": [
        {
          "indexed": false,
          "internalType": "uint32",
          "name": "eid",
          "type": "uint32"
        },
        {
          "indexed": false,
          "internalType": "bytes32",
          "name": "peer",
          "type": "bytes32"
        }
      ],
      "name": "PeerSet",
      "type": "event"
    },
    {
      "anonymous": false,
      "inputs": [
        {
          "indexed": true,
          "internalType": "bytes32",
          "name": "transferId",
          "type": "bytes32"
        },
        {
          "indexed": true,
          "internalType": "bytes32",
          "name": "requestId",
          "type": "bytes32"
        },
        {
          "indexed": true,
          "internalType": "address",
          "name": "user",
          "type": "address"
        },
        {
          "indexed": false,
          "internalType": "uint256",
          "name": "amount",
          "type": "uint256"
        },
        {
          "indexed": false,
          "internalType": "uint32",
          "name": "destinationChain",
          "type": "uint32"
        }
      ],
      "name": "TransferInitiated",
      "type": "event"
    },
    {
      "inputs": [
        {
          "internalType": "uint32",
          "name": "",
          "type": "uint32"
        }
      ],
      "name": "aggregatorByEid",
      "outputs": [
        {
          "internalType": "address",
          "name": "",
          "type": "address"
        }
      ],
      "stateMutability": "view",
      "type": "function"
    },
    {
      "inputs": [
        {
          "components": [
            {
              "internalType": "uint32",
              "name": "srcEid",
              "type": "uint32"
            },
            {
              "internalType": "bytes32",
              "name": "sender",
              "type": "bytes32"
            },
            {
              "internalType": "uint64",
              "name": "nonce",
              "type": "uint64"
            }
          ],
          "internalType": "struct Origin",
          "name": "origin",
          "type": "tuple"
        }
      ],
      "name": "allowInitializePath",
      "outputs": [
        {
          "internalType": "bool",
          "name": "",
          "type": "bool"
        }
      ],
      "stateMutability": "view",
      "type": "function"
    },
    {
      "inputs": [],
      "name": "cctpBridger",
      "outputs": [
        {
          "internalType": "contract ICctpBridger",
          "name": "",
          "type": "address"
        }
      ],
      "stateMutability": "view",
      "type": "function"
    },
    {
      "inputs": [
        {
          "internalType": "uint32",
          "name": "",
          "type": "uint32"
        }
      ],
      "name": "cctpDomainByEid",
      "outputs": [
        {
          "internalType": "uint32",
          "name": "",
          "type": "uint32"
        }
      ],
      "stateMutability": "view",
      "type": "function"
    },
    {
      "inputs": [
        {
          "internalType": "address",
          "name": "token",
          "type": "address"
        },
        {
          "internalType": "address",
          "name": "to",
          "type": "address"
        },
        {
          "internalType": "uint256",
          "name": "amount",
          "type": "uint256"
        }
      ],
      "name": "emergencyWithdraw",
      "outputs": [],
      "stateMutability": "nonpayable",
      "type": "function"
    },
    {
      "inputs": [],
      "name": "endpoint",
      "outputs": [
        {
          "internalType": "contract ILayerZeroEndpointV2",
          "name": "",
          "type": "address"
        }
      ],
      "stateMutability": "view",
      "type": "function"
    },
    {
      "inputs": [
        {
          "internalType": "bytes32",
          "name": "transferId",
          "type": "bytes32"
        }
      ],
      "name": "getPendingTransfer",
      "outputs": [
        {
          "components": [
            {
              "internalType": "bytes32",
              "name": "requestId",
              "type": "bytes32"
            },
            {
              "internalType": "address",
              "name": "user",
              "type": "address"
            },
            {
              "internalType": "uint256",
              "name": "amount",
              "type": "uint256"
            },
            {
              "internalType": "uint32",
              "name": "destinationChain",
              "type": "uint32"
            },
            {
              "internalType": "bytes32",
              "name": "cctpMessageHash",
              "type": "bytes32"
            },
            {
              "internalType": "uint256",
              "name": "timestamp",
              "type": "uint256"
            },
            {
              "internalType": "bool",
              "name": "sent",
              "type": "bool"
            }
          ],
          "internalType": "struct SourceChainInitiator.PendingTransfer",
          "name": "",
          "type": "tuple"
        }
      ],
      "stateMutability": "view",
      "type": "function"
    },
    {
      "inputs": [
        {
          "components": [
            {
              "internalType": "uint32",
              "name": "srcEid",
              "type": "uint32"
            },
            {
              "internalType": "bytes32",
              "name": "sender",
              "type": "bytes32"
            },
            {
              "internalType": "uint64",
              "name": "nonce",
              "type": "uint64"
            }
          ],
          "internalType": "struct Origin",
          "name": "",
          "type": "tuple"
        },
        {
          "internalType": "bytes",
          "name": "",
          "type": "bytes"
        },
        {
          "internalType": "address",
          "name": "_sender",
          "type": "address"
        }
      ],
      "name": "isComposeMsgSender",
      "outputs": [
        {
          "internalType": "bool",
          "name": "",
          "type": "bool"
        }
      ],
      "stateMutability": "view",
      "type": "function"
    },
    {
      "inputs": [
        {
          "components": [
            {
              "internalType": "uint32",
              "name": "srcEid",
              "type": "uint32"
            },
            {
              "internalType": "bytes32",
              "name": "sender",
              "type": "bytes32"
            },
            {
              "internalType": "uint64",
              "name": "nonce",
              "type": "uint64"
            }
          ],
          "internalType": "struct Origin",
          "name": "_origin",
          "type": "tuple"
        },
        {
          "internalType": "bytes32",
          "name": "_guid",
          "type": "bytes32"
        },
        {
          "internalType": "bytes",
          "name": "_message",
          "type": "bytes"
        },
        {
          "internalType": "address",
          "name": "_executor",
          "type": "address"
        },
        {
          "internalType": "bytes",
          "name": "_extraData",
          "type": "bytes"
        }
      ],
      "name": "lzReceive",
      "outputs": [],
      "stateMutability": "payable",
      "type": "function"
    },
    {
      "inputs": [
        {
          "internalType": "uint32",
          "name": "",
          "type": "uint32"
        },
        {
          "internalType": "bytes32",
          "name": "",
          "type": "bytes32"
        }
      ],
      "name": "nextNonce",
      "outputs": [
        {
          "internalType": "uint64",
          "name": "nonce",
          "type": "uint64"
        }
      ],
      "stateMutability": "view",
      "type": "function"
    },
    {
      "inputs": [],
      "name": "oAppVersion",
      "outputs": [
        {
          "internalType": "uint64",
          "name": "senderVersion",
          "type": "uint64"
        },
        {
          "internalType": "uint64",
          "name": "receiverVersion",
          "type": "uint64"
        }
      ],
      "stateMutability": "pure",
      "type": "function"
    },
    {
      "inputs": [],
      "name": "owner",
      "outputs": [
        {
          "internalType": "address",
          "name": "",
          "type": "address"
        }
      ],
      "stateMutability": "view",
      "type": "function"
    },
    {
      "inputs": [
        {
          "internalType": "uint32",
          "name": "eid",
          "type": "uint32"
        }
      ],
      "name": "peers",
      "outputs": [
        {
          "internalType": "bytes32",
          "name": "peer",
          "type": "bytes32"
        }
      ],
      "stateMutability": "view",
      "type": "function"
    },
    {
      "inputs": [
        {
          "internalType": "bytes32",
          "name": "",
          "type": "bytes32"
        }
      ],
      "name": "pendingTransfers",
      "outputs": [
        {
          "internalType": "bytes32",
          "name": "requestId",
          "type": "bytes32"
        },
        {
          "internalType": "address",
          "name": "user",
          "type": "address"
        },
        {
          "internalType": "uint256",
          "name": "amount",
          "type": "uint256"
        },
        {
          "internalType": "uint32",
          "name": "destinationChain",
          "type": "uint32"
        },
        {
          "internalType": "bytes32",
          "name": "cctpMessageHash",
          "type": "bytes32"
        },
        {
          "internalType": "uint256",
          "name": "timestamp",
          "type": "uint256"
        },
        {
          "internalType": "bool",
          "name": "sent",
          "type": "bool"
        }
      ],
      "stateMutability": "view",
      "type": "function"
    },
    {
      "inputs": [
        {
          "internalType": "uint32",
          "name": "chainEid",
          "type": "uint32"
        },
        {
          "internalType": "address",
          "name": "aggregator",
          "type": "address"
        }
      ],
      "name": "registerAggregator",
      "outputs": [],
      "stateMutability": "nonpayable",
      "type": "function"
    },
    {
      "inputs": [
        {
          "internalType": "uint32",
          "name": "chainEid",
          "type": "uint32"
        },
        {
          "internalType": "uint32",
          "name": "cctpDomain",
          "type": "uint32"
        }
      ],
      "name": "registerCCTPDomain",
      "outputs": [],
      "stateMutability": "nonpayable",
      "type": "function"
    },
    {
      "inputs": [],
      "name": "renounceOwnership",
      "outputs": [],
      "stateMutability": "nonpayable",
      "type": "function"
    },
    {
      "inputs": [
        {
          "internalType": "bytes32",
          "name": "requestId",
          "type": "bytes32"
        },
        {
          "internalType": "uint256",
          "name": "amount",
          "type": "uint256"
        },
        {
          "internalType": "uint32",
          "name": "destinationEid",
          "type": "uint32"
        },
        {
          "internalType": "bool",
          "name": "useFastMode",
          "type": "bool"
        }
      ],
      "name": "sendToAggregator",
      "outputs": [
        {
          "internalType": "bytes32",
          "name": "transferId",
          "type": "bytes32"
        }
      ],
      "stateMutability": "nonpayable",
      "type": "function"
    },
    {
      "inputs": [
        {
          "internalType": "address",
          "name": "_delegate",
          "type": "address"
        }
      ],
      "name": "setDelegate",
      "outputs": [],
      "stateMutability": "nonpayable",
      "type": "function"
    },
    {
      "inputs": [
        {
          "internalType": "uint32",
          "name": "_eid",
          "type": "uint32"
        },
        {
          "internalType": "bytes32",
          "name": "_peer",
          "type": "bytes32"
        }
      ],
      "name": "setPeer",
      "outputs": [],
      "stateMutability": "nonpayable",
      "type": "function"
    },
    {
      "inputs": [
        {
          "internalType": "address",
          "name": "newOwner",
          "type": "address"
        }
      ],
      "name": "transferOwnership",
      "outputs": [],
      "stateMutability": "nonpayable",
      "type": "function"
    },
    {
      "inputs": [],
      "name": "usdcToken",
      "outputs": [
        {
          "internalType": "contract IERC20",
          "name": "",
          "type": "address"
        }
      ],
      "stateMutability": "view",
      "type": "function"
    },
    {
      "stateMutability": "payable",
      "type": "receive"
    }
  ],
  "transactionHash": "0xd299e74d90d2765974425e353d67722547768ab8f6a9be42b7447fbd1371ce50",
  "args": [
    "0x6EDCE65403992e310A62460808c4b910D972f10f",
    "0x1c7D4B196Cb0C7B01d743Fbc6116a902379C7238",
    "0x56B3c656F20b45A5e656c375C3fEB6Ed4f886689",
    "0x5C8A5483bCDB51F858a9cF4a647dF6D34fdDf81c"
  ],
  "numDeployments": 1,
  "solcInputHash": "5ae45d0bd09e265b870044419c9f05ac",
  "bytecode": "0x60e06040523480156200001157600080fd5b5060405162001db438038062001db4833981016040819052620000349162000241565b83818181806001600160a01b0381166200006957604051631e4fbdf760e01b8152600060048201526024015b60405180910390fd5b6200007481620001d4565b506001600160a01b038083166080528116620000a357604051632d618d8160e21b815260040160405180910390fd5b60805160405163ca5eb5e160e01b81526001600160a01b0383811660048301529091169063ca5eb5e190602401600060405180830381600087803b158015620000eb57600080fd5b505af115801562000100573d6000803e3d6000fd5b5050506001600160a01b03881694506200016293505050505760405162461bcd60e51b815260206004820152601460248201527f496e76616c696420555344432061646472657373000000000000000000000000604482015260640162000060565b6001600160a01b038216620001ba5760405162461bcd60e51b815260206004820152601360248201527f496e76616c696420436374704272696467657200000000000000000000000000604482015260640162000060565b506001600160a01b0391821660a0521660c052506200029e565b600080546001600160a01b038381166001600160a01b0319831681178455604051919092169283917f8be0079c531659141344cd1fd0a4f28419497f9722a3daafe3b4186f6b6457e09190a35050565b80516001600160a01b03811681146200023c57600080fd5b919050565b600080600080608085870312156200025857600080fd5b620002638562000224565b9350620002736020860162000224565b9250620002836040860162000224565b9150620002936060860162000224565b905092959194509250565b60805160a05160c051611aae62000306600039600081816103c60152818161118201526112070152600081816101b901528181610af501528181610fb7015261115d0152600081816103fa0152818161072801528181610b650152610c620152611aae6000f3fe6080604052600436106101795760003560e01c8063715018a6116100cb578063bb0b6a531161007f578063e63ea40811610059578063e63ea4081461065c578063f2fde38b1461067c578063ff7bd03d1461069c57600080fd5b8063bb0b6a53146105e1578063c300b3e81461061c578063ca5eb5e11461063c57600080fd5b806382413eac116100b057806382413eac146104d25780638d4ab2c0146105115780638da5cb5b146105c357600080fd5b8063715018a6146104845780637d25a05e1461049957600080fd5b80633400288b1161012d5780635e280f11116101075780635e280f11146103e857806362e28d5f1461041c57806366d815961461043c57600080fd5b80633400288b146102635780633c1d31d6146102835780633cea2a48146103b457600080fd5b806313137d651161015e57806313137d65146101f857806317442b701461020b57806331a9e0311461022d57600080fd5b8063052bfcee1461018557806311eac855146101a757600080fd5b3661018057005b600080fd5b34801561019157600080fd5b506101a56101a0366004611658565b6106bc565b005b3480156101b357600080fd5b506101db7f000000000000000000000000000000000000000000000000000000000000000081565b6040516001600160a01b0390911681526020015b60405180910390f35b6101a561020636600461170e565b610726565b34801561021757600080fd5b50604080516001815260026020820152016101ef565b34801561023957600080fd5b506101db6102483660046117ad565b6002602052600090815260409020546001600160a01b031681565b34801561026f57600080fd5b506101a561027e3660046117d1565b610809565b34801561028f57600080fd5b5061034d61029e3660046117fd565b6040805160e081018252600080825260208201819052918101829052606081018290526080810182905260a0810182905260c081019190915250600090815260046020818152604092839020835160e0810185528154815260018201546001600160a01b031692810192909252600281015493820193909352600383015463ffffffff166060820152908201546080820152600582015460a082015260069091015460ff16151560c082015290565b6040516101ef9190600060e082019050825182526001600160a01b0360208401511660208301526040830151604083015263ffffffff60608401511660608301526080830151608083015260a083015160a083015260c0830151151560c083015292915050565b3480156103c057600080fd5b506101db7f000000000000000000000000000000000000000000000000000000000000000081565b3480156103f457600080fd5b506101db7f000000000000000000000000000000000000000000000000000000000000000081565b34801561042857600080fd5b506101a5610437366004611816565b61081f565b34801561044857600080fd5b5061046f6104573660046117ad565b60036020526000908152604090205463ffffffff1681565b60405163ffffffff90911681526020016101ef565b34801561049057600080fd5b506101a56108ec565b3480156104a557600080fd5b506104b96104b43660046117d1565b610900565b60405167ffffffffffffffff90911681526020016101ef565b3480156104de57600080fd5b506105016104ed36600461184b565b6001600160a01b0381163014949350505050565b60405190151581526020016101ef565b34801561051d57600080fd5b5061057f61052c3660046117fd565b6004602081905260009182526040909120805460018201546002830154600384015494840154600585015460069095015493956001600160a01b0390931694919363ffffffff9093169290919060ff1687565b604080519788526001600160a01b0390961660208801529486019390935263ffffffff9091166060850152608084015260a0830152151560c082015260e0016101ef565b3480156105cf57600080fd5b506000546001600160a01b03166101db565b3480156105ed57600080fd5b5061060e6105fc3660046117ad565b60016020526000908152604090205481565b6040519081526020016101ef565b34801561062857600080fd5b5061060e6106373660046118b1565b610909565b34801561064857600080fd5b506101a5610657366004611900565b610c22565b34801561066857600080fd5b506101a561067736600461191b565b610cc1565b34801561068857600080fd5b506101a5610697366004611900565b610ce2565b3480156106a857600080fd5b506105016106b7366004611957565b610d39565b6106c4610d6f565b63ffffffff828116600081815260036020908152604091829020805463ffffffff19169486169485179055905192835290917fca1e4568c2cda874eb1da09df408dbe5319f713c9ea9221dbc370bd7b99baa5c91015b60405180910390a25050565b7f00000000000000000000000000000000000000000000000000000000000000006001600160a01b0316331461078f576040517f91ac5e4f0000000000000000000000000000000000000000000000000000000081523360048201526024015b60405180910390fd5b602087018035906107a9906107a4908a6117ad565b610db5565b14610800576107bb60208801886117ad565b6040517fc26bebcc00000000000000000000000000000000000000000000000000000000815263ffffffff909116600482015260208801356024820152604401610786565b50505050505050565b610811610d6f565b61081b8282610e0a565b5050565b610827610d6f565b6001600160a01b03811661087d5760405162461bcd60e51b815260206004820152601260248201527f496e76616c69642061676772656761746f7200000000000000000000000000006044820152606401610786565b63ffffffff8216600081815260026020908152604091829020805473ffffffffffffffffffffffffffffffffffffffff19166001600160a01b03861690811790915591519182527faebf30e85349740659d6a20090c27ab9cb763bf1061ef8888bf538209533eeaf910161071a565b6108f4610d6f565b6108fe6000610e5f565b565b60005b92915050565b600080841161095a5760405162461bcd60e51b815260206004820152600e60248201527f496e76616c696420616d6f756e740000000000000000000000000000000000006044820152606401610786565b63ffffffff83166000908152600260205260409020546001600160a01b03166109c55760405162461bcd60e51b815260206004820152601960248201527f41676772656761746f72206e6f742072656769737465726564000000000000006044820152606401610786565b63ffffffff80841660009081526003602052604090205416801515806109f257508363ffffffff16619ce1145b610a3e5760405162461bcd60e51b815260206004820152601a60248201527f4343545020646f6d61696e206e6f7420726567697374657265640000000000006044820152606401610786565b604080516020810188905233918101919091526060810186905263ffffffff851660808201524260a082015260c00160408051601f1981840301815291815281516020928301206000818152600490935291206006015490925060ff1615610ae85760405162461bcd60e51b815260206004820152601560248201527f5472616e7366657220616c72656164792073656e7400000000000000000000006044820152606401610786565b610b1d6001600160a01b037f000000000000000000000000000000000000000000000000000000000000000016333088610ebc565b6040805186815263ffffffff861660208201523391889185917f7996d6e1c8609123866ecfd6fdb0fb1f2e8f039babc923078a9bd50305b72b3b910160405180910390a460007f00000000000000000000000000000000000000000000000000000000000000006001600160a01b031663416ecebf6040518163ffffffff1660e01b8152600401602060405180830381865afa158015610bc1573d6000803e3d6000fd5b505050506040513d601f19601f82011682018060405250810190610be59190611973565b90508063ffffffff168563ffffffff1603610c0b57610c0683888888610f3e565b610c18565b610c188388888888611124565b5050949350505050565b610c2a610d6f565b6040517fca5eb5e10000000000000000000000000000000000000000000000000000000081526001600160a01b0382811660048301527f0000000000000000000000000000000000000000000000000000000000000000169063ca5eb5e190602401600060405180830381600087803b158015610ca657600080fd5b505af1158015610cba573d6000803e3d6000fd5b5050505050565b610cc9610d6f565b610cdd6001600160a01b03841683836113e0565b505050565b610cea610d6f565b6001600160a01b038116610d2d576040517f1e4fbdf700000000000000000000000000000000000000000000000000000000815260006004820152602401610786565b610d3681610e5f565b50565b6000602082018035906001908390610d5190866117ad565b63ffffffff1681526020810191909152604001600020541492915050565b6000546001600160a01b031633146108fe576040517f118cdaa7000000000000000000000000000000000000000000000000000000008152336004820152602401610786565b63ffffffff811660009081526001602052604081205480610903576040517ff6ff4fb700000000000000000000000000000000000000000000000000000000815263ffffffff84166004820152602401610786565b63ffffffff8216600081815260016020908152604091829020849055815192835282018390527f238399d427b947898edb290f5ff0f9109849b1c3ba196a42e35f00c50a54b98b910160405180910390a15050565b600080546001600160a01b0383811673ffffffffffffffffffffffffffffffffffffffff19831681178455604051919092169283917f8be0079c531659141344cd1fd0a4f28419497f9722a3daafe3b4186f6b6457e09190a35050565b6040516001600160a01b038481166024830152838116604483015260648201839052610f389186918216906323b872dd906084015b604051602081830303815290604052915060e01b6020820180517bffffffffffffffffffffffffffffffffffffffffffffffffffffffff8381831617835250505050611411565b50505050565b63ffffffff81166000908152600260205260409020546001600160a01b031680610faa5760405162461bcd60e51b815260206004820152601260248201527f496e76616c69642061676772656761746f7200000000000000000000000000006044820152606401610786565b610fde6001600160a01b037f00000000000000000000000000000000000000000000000000000000000000001682856113e0565b6040517fd8d9070a00000000000000000000000000000000000000000000000000000000815260048101859052602481018490526001600160a01b0382169063d8d9070a90604401600060405180830381600087803b15801561104057600080fd5b505af1158015611054573d6000803e3d6000fd5b50506040805160e08101825296875233602080890191825288830197885263ffffffff96871660608a01908152600060808b018181524260a08d01908152600160c08e018181529e8452600495869052969092209b518c559351948b01805473ffffffffffffffffffffffffffffffffffffffff19166001600160a01b0390961695909517909455975160028a0155965160038901805463ffffffff1916919097161790955593519486019490945550505160058301555090516006909101805460ff1916911515919091179055565b63ffffffff808316600090815260036020908152604080832054600290925290912054908216916001600160a01b03918216916111aa917f0000000000000000000000000000000000000000000000000000000000000000909116907f000000000000000000000000000000000000000000000000000000000000000090889061149b16565b6000866040516020016111bf91815260200190565b60405160208183030381529060405290506000846111de5760006111e3565b620f42405b62ffffff1690506000856111f9576107d06111fd565b6103e85b61ffff16905060007f00000000000000000000000000000000000000000000000000000000000000006001600160a01b031663506c3f008a88888988888b6040518863ffffffff1660e01b815260040161125d9796959493929190611990565b6020604051808303816000875af115801561127c573d6000803e3d6000fd5b505050506040513d601f19601f820116820180604052508101906112a09190611a25565b9050808b7ea705fa03975e16aa98d99efc40bc9c1dbaadfd48584ea782ce3f31a03d00fc8b6040516112d491815260200190565b60405180910390a36040518060e001604052808b8152602001336001600160a01b031681526020018a81526020018963ffffffff16815260200182815260200142815260200160011515815250600460008d81526020019081526020016000206000820151816000015560208201518160010160006101000a8154816001600160a01b0302191690836001600160a01b031602179055506040820151816002015560608201518160030160006101000a81548163ffffffff021916908363ffffffff1602179055506080820151816004015560a0820151816005015560c08201518160060160006101000a81548160ff0219169083151502179055509050505050505050505050505050565b6040516001600160a01b03838116602483015260448201839052610cdd91859182169063a9059cbb90606401610ef1565b600080602060008451602086016000885af180611434576040513d6000823e3d81fd5b50506000513d9150811561144c578060011415611459565b6001600160a01b0384163b155b15610f38576040517f5274afe70000000000000000000000000000000000000000000000000000000081526001600160a01b0385166004820152602401610786565b6040517fdd62ed3e0000000000000000000000000000000000000000000000000000000081523060048201526001600160a01b0383811660248301526000919085169063dd62ed3e90604401602060405180830381865afa158015611504573d6000803e3d6000fd5b505050506040513d601f19601f820116820180604052508101906115289190611a25565b9050610f3884846115398585611a3e565b604080516001600160a01b038416602482015260448082018490528251808303909101815260649091019091526020810180517bffffffffffffffffffffffffffffffffffffffffffffffffffffffff167f095ea7b3000000000000000000000000000000000000000000000000000000001790526115b884826115f7565b610f38576040516001600160a01b038481166024830152600060448301526115ed91869182169063095ea7b390606401610ef1565b610f388482611411565b6000806000806020600086516020880160008a5af192503d9150600051905082801561163c5750811561162d578060011461163c565b6000866001600160a01b03163b115b9695505050505050565b63ffffffff81168114610d3657600080fd5b6000806040838503121561166b57600080fd5b823561167681611646565b9150602083013561168681611646565b809150509250929050565b6000606082840312156116a357600080fd5b50919050565b60008083601f8401126116bb57600080fd5b50813567ffffffffffffffff8111156116d357600080fd5b6020830191508360208285010111156116eb57600080fd5b9250929050565b80356001600160a01b038116811461170957600080fd5b919050565b600080600080600080600060e0888a03121561172957600080fd5b6117338989611691565b965060608801359550608088013567ffffffffffffffff8082111561175757600080fd5b6117638b838c016116a9565b909750955085915061177760a08b016116f2565b945060c08a013591508082111561178d57600080fd5b5061179a8a828b016116a9565b989b979a50959850939692959293505050565b6000602082840312156117bf57600080fd5b81356117ca81611646565b9392505050565b600080604083850312156117e457600080fd5b82356117ef81611646565b946020939093013593505050565b60006020828403121561180f57600080fd5b5035919050565b6000806040838503121561182957600080fd5b823561183481611646565b9150611842602084016116f2565b90509250929050565b60008060008060a0858703121561186157600080fd5b61186b8686611691565b9350606085013567ffffffffffffffff81111561188757600080fd5b611893878288016116a9565b90945092506118a69050608086016116f2565b905092959194509250565b600080600080608085870312156118c757600080fd5b843593506020850135925060408501356118e081611646565b9150606085013580151581146118f557600080fd5b939692955090935050565b60006020828403121561191257600080fd5b6117ca826116f2565b60008060006060848603121561193057600080fd5b611939846116f2565b9250611947602085016116f2565b9150604084013590509250925092565b60006060828403121561196957600080fd5b6117ca8383611691565b60006020828403121561198557600080fd5b81516117ca81611646565b8781526000602063ffffffff808a1660208501526001600160a01b03808a16604086015280891660608601525086608085015280861660a08501525060e060c084015283518060e085015260005b818110156119fb57858101830151858201610100015282016119de565b506101009150600082828601015281601f19601f8301168501019250505098975050505050505050565b600060208284031215611a3757600080fd5b5051919050565b80820180821115610903577f4e487b7100000000000000000000000000000000000000000000000000000000600052601160045260246000fdfea26469706673582212201a0cedb8764d48570664294a889329f0df2cfbb43e283dc913e4a0d26cf6c04f64736f6c63430008160033",
  "devdoc": {
    "details": "Uses Circle CCTP to burn USDC and mint to aggregator (replacing OFT Adapter) ARCHITECTURE: - User sends USDC from any chain (Arbitrum, Optimism, etc.) - Contract burns USDC via Circle CCTP - Circle mints USDC to InstantAggregator on destination chain - InstantAggregator receives USDC + hookData for aggregation Flow: 1. User approves USDC to this contract 2. User calls sendToAggregator() with request details 3. Contract burns USDC via CCTP with hookData containing requestId 4. Circle mints USDC to InstantAggregator on destination 5. InstantAggregator's handleReceiveMessage() is called with hookData 6. Aggregator tracks the payment and settles when threshold met",
    "errors": {
      "OwnableInvalidOwner(address)": [
        {
          "details": "The owner is not a valid owner account. (eg. `address(0)`)"
        }
      ],
      "OwnableUnauthorizedAccount(address)": [
        {
          "details": "The caller account is not authorized to perform an operation."
        }
      ],
      "SafeERC20FailedOperation(address)": [
        {
          "details": "An operation with an ERC-20 token failed."
        }
      ]
    },
    "kind": "dev",
    "methods": {
      "allowInitializePath((uint32,bytes32,uint64))": {
        "details": "This indicates to the endpoint that the OApp has enabled msgs for this particular path to be received.This defaults to assuming if a peer has been set, its initialized. Can be overridden by the OApp if there is other logic to determine this.",
        "params": {
          "origin": "The origin information containing the source endpoint and sender address."
        },
        "returns": {
          "_0": "Whether the path has been initialized."
        }
      },
      "constructor": {
        "params": {
          "_cctpBridger": "CctpBridger contract address",
          "_endpoint": "LayerZero endpoint address (for future cross-chain messages if needed)",
          "_owner": "Contract owner",
          "_usdcToken": "USDC token address on this chain"
        }
      },
      "isComposeMsgSender((uint32,bytes32,uint64),bytes,address)": {
        "details": "_origin The origin information containing the source endpoint and sender address.  - srcEid: The source chain endpoint ID.  - sender: The sender address on the src chain.  - nonce: The nonce of the message._message The lzReceive payload.Applications can optionally choose to implement separate composeMsg senders that are NOT the bridging layer.The default sender IS the OAppReceiver implementer.",
        "params": {
          "_sender": "The sender address."
        },
        "returns": {
          "_0": "isSender Is a valid sender."
        }
      },
      "lzReceive((uint32,bytes32,uint64),bytes32,bytes,address,bytes)": {
        "details": "Entry point for receiving messages or packets from the endpoint.Entry point for receiving msg/packet from the LayerZero endpoint.",
        "params": {
          "_executor": "The address of the executor for the received message.",
          "_extraData": "Additional arbitrary data provided by the corresponding executor.",
          "_guid": "The unique identifier for the received LayerZero message.",
          "_message": "The payload of the received message.",
          "_origin": "The origin information containing the source endpoint and sender address.  - srcEid: The source chain endpoint ID.  - sender: The sender address on the src chain.  - nonce: The nonce of the message."
        }
      },
      "nextNonce(uint32,bytes32)": {
        "details": "_srcEid The source endpoint ID._sender The sender address.The path nonce starts from 1. If 0 is returned it means that there is NO nonce ordered enforcement.Is required by the off-chain executor to determine the OApp expects msg execution is ordered.This is also enforced by the OApp.By default this is NOT enabled. ie. nextNonce is hardcoded to return 0.",
        "returns": {
          "nonce": "The next nonce."
        }
      },
      "oAppVersion()": {
        "returns": {
          "receiverVersion": "The version of the OAppReceiver.sol implementation.",
          "senderVersion": "The version of the OAppSender.sol implementation."
        }
      },
      "owner()": {
        "details": "Returns the address of the current owner."
      },
      "registerAggregator(uint32,address)": {
        "params": {
          "aggregator": "InstantAggregator address on that chain",
          "chainEid": "Destination chain LayerZero endpoint ID"
        }
      },
      "registerCCTPDomain(uint32,uint32)": {
        "params": {
          "cctpDomain": "Circle CCTP domain ID Common mappings (Testnet): - Ethereum Sepolia: EID 40161, Domain 0 - Arbitrum Sepolia: EID 40231, Domain 3 - Base Sepolia: EID 40245, Domain 6 - Optimism Sepolia: EID 40232, Domain 2",
          "chainEid": "LayerZero endpoint ID"
        }
      },
      "renounceOwnership()": {
        "details": "Leaves the contract without owner. It will not be possible to call `onlyOwner` functions. Can only be called by the current owner. NOTE: Renouncing ownership will leave the contract without an owner, thereby disabling any functionality that is only available to the owner."
      },
      "sendToAggregator(bytes32,uint256,uint32,bool)": {
        "details": "User must approve USDC to this contract before calling",
        "params": {
          "amount": "USDC amount to send",
          "destinationEid": "Destination chain LayerZero endpoint ID",
          "requestId": "Aggregation request ID",
          "useFastMode": "Use CCTP Fast mode (1-2 min, ~$1 fee) vs standard (10-20 min, free)"
        },
        "returns": {
          "transferId": "Unique transfer identifier"
        }
      },
      "setDelegate(address)": {
        "details": "Only the owner/admin of the OApp can call this function.Provides the ability for a delegate to set configs, on behalf of the OApp, directly on the Endpoint contract.",
        "params": {
          "_delegate": "The address of the delegate to be set."
        }
      },
      "setPeer(uint32,bytes32)": {
        "details": "Only the owner/admin of the OApp can call this function.Indicates that the peer is trusted to send LayerZero messages to this OApp.Set this to bytes32(0) to remove the peer address.Peer is a bytes32 to accommodate non-evm chains.",
        "params": {
          "_eid": "The endpoint ID.",
          "_peer": "The address of the peer to be associated with the corresponding endpoint."
        }
      },
      "transferOwnership(address)": {
        "details": "Transfers ownership of the contract to a new account (`newOwner`). Can only be called by the current owner."
      }
    },
    "title": "SourceChainInitiator",
    "version": 1
  },
  "userdoc": {
    "events": {
      "AggregatorRegistered(uint32,address)": {
        "notice": "Events"
      }
    },
    "kind": "user",
    "methods": {
      "aggregatorByEid(uint32)": {
        "notice": "InstantAggregator address on destination chain (as address)"
      },
      "allowInitializePath((uint32,bytes32,uint64))": {
        "notice": "Checks if the path initialization is allowed based on the provided origin."
      },
      "cctpBridger()": {
        "notice": "CctpBridger contract"
      },
      "cctpDomainByEid(uint32)": {
        "notice": "CCTP domain ID by LayerZero EID"
      },
      "constructor": {
        "notice": "Constructor"
      },
      "emergencyWithdraw(address,address,uint256)": {
        "notice": "Emergency withdraw (owner only)"
      },
      "endpoint()": {
        "notice": "Retrieves the LayerZero endpoint associated with the OApp."
      },
      "getPendingTransfer(bytes32)": {
        "notice": "Get pending transfer details"
      },
      "isComposeMsgSender((uint32,bytes32,uint64),bytes,address)": {
        "notice": "Indicates whether an address is an approved composeMsg sender to the Endpoint."
      },
      "nextNonce(uint32,bytes32)": {
        "notice": "Retrieves the next nonce for a given source endpoint and sender address."
      },
      "oAppVersion()": {
        "notice": "Retrieves the OApp version information."
      },
      "peers(uint32)": {
        "notice": "Retrieves the peer (OApp) associated with a corresponding endpoint."
      },
      "pendingTransfers(bytes32)": {
        "notice": "Mapping of transfer ID to pending transfer"
      },
      "registerAggregator(uint32,address)": {
        "notice": "Register InstantAggregator address for a destination chain"
      },
      "registerCCTPDomain(uint32,uint32)": {
        "notice": "Register CCTP domain for a LayerZero endpoint ID"
      },
      "sendToAggregator(bytes32,uint256,uint32,bool)": {
        "notice": "Send USDC to InstantAggregator on destination chain via CCTP"
      },
      "setDelegate(address)": {
        "notice": "Sets the delegate address for the OApp."
      },
      "setPeer(uint32,bytes32)": {
        "notice": "Sets the peer address (OApp instance) for a corresponding endpoint."
      },
      "usdcToken()": {
        "notice": "USDC token on this chain"
      }
    },
    "notice": "Initiates USDC transfers from source chain to InstantAggregator on destination chain",
    "version": 1
  },
  "storageLayout": {
    "storage": [
      {
        "astId": 1327,
        "contract": "contracts/SourceChainInitiator.sol:SourceChainInitiator",
        "label": "_owner",
        "offset": 0,
        "slot": "0",
        "type": "t_address"
      },
      {
        "astId": 785,
        "contract": "contracts/SourceChainInitiator.sol:SourceChainInitiator",
        "label": "peers",
        "offset": 0,
        "slot": "1",
        "type": "t_mapping(t_uint32,t_bytes32)"
      },
      {
        "astId": 3832,
        "contract": "contracts/SourceChainInitiator.sol:SourceChainInitiator",
        "label": "aggregatorByEid",
        "offset": 0,
        "slot": "2",
        "type": "t_mapping(t_uint32,t_address)"
      },
      {
        "astId": 3837,
        "contract": "contracts/SourceChainInitiator.sol:SourceChainInitiator",
        "label": "cctpDomainByEid",
        "offset": 0,
        "slot": "3",
        "type": "t_mapping(t_uint32,t_uint32)"
      },
      {
        "astId": 3859,
        "contract": "contracts/SourceChainInitiator.sol:SourceChainInitiator",
        "label": "pendingTransfers",
        "offset": 0,
        "slot": "4",
        "type": "t_mapping(t_bytes32,t_struct(PendingTransfer)3853_storage)"
      }
    ],
    "types": {
      "t_address": {
        "encoding": "inplace",
        "label": "address",
        "numberOfBytes": "20"
      },
      "t_bool": {
        "encoding": "inplace",
        "label": "bool",
        "numberOfBytes": "1"
      },
      "t_bytes32": {
        "encoding": "inplace",
        "label": "bytes32",
        "numberOfBytes": "32"
      },
      "t_mapping(t_bytes32,t_struct(PendingTransfer)3853_storage)": {
        "encoding": "mapping",
        "key": "t_bytes32",
        "label": "mapping(bytes32 => struct SourceChainInitiator.PendingTransfer)",
        "numberOfBytes": "32",
        "value": "t_struct(PendingTransfer)3853_storage"
      },
      "t_mapping(t_uint32,t_address)": {
        "encoding": "mapping",
        "key": "t_uint32",
        "label": "mapping(uint32 => address)",
        "numberOfBytes": "32",
        "value": "t_address"
      },
      "t_mapping(t_uint32,t_bytes32)": {
        "encoding": "mapping",
        "key": "t_uint32",
        "label": "mapping(uint32 => bytes32)",
        "numberOfBytes": "32",
        "value": "t_bytes32"
      },
      "t_mapping(t_uint32,t_uint32)": {
        "encoding": "mapping",
        "key": "t_uint32",
        "label": "mapping(uint32 => uint32)",
        "numberOfBytes": "32",
        "value": "t_uint32"
      },
      "t_struct(PendingTransfer)3853_storage": {
        "encoding": "inplace",
        "label": "struct SourceChainInitiator.PendingTransfer",
        "members": [
          {
            "astId": 3840,
            "contract": "contracts/SourceChainInitiator.sol:SourceChainInitiator",
            "label": "requestId",
            "offset": 0,
            "slot": "0",
            "type": "t_bytes32"
          },
          {
            "astId": 3842,
            "contract": "contracts/SourceChainInitiator.sol:SourceChainInitiator",
            "label": "user",
            "offset": 0,
            "slot": "1",
            "type": "t_address"
          },
          {
            "astId": 3844,
            "contract": "contracts/SourceChainInitiator.sol:SourceChainInitiator",
            "label": "amount",
            "offset": 0,
            "slot": "2",
            "type": "t_uint256"
          },
          {
            "astId": 3846,
            "contract": "contracts/SourceChainInitiator.sol:SourceChainInitiator",
            "label": "destinationChain",
            "offset": 0,
            "slot": "3",
            "type": "t_uint32"
          },
          {
            "astId": 3848,
            "contract": "contracts/SourceChainInitiator.sol:SourceChainInitiator",
            "label": "cctpMessageHash",
            "offset": 0,
            "slot": "4",
            "type": "t_bytes32"
          },
          {
            "astId": 3850,
            "contract": "contracts/SourceChainInitiator.sol:SourceChainInitiator",
            "label": "timestamp",
            "offset": 0,
            "slot": "5",
            "type": "t_uint256"
          },
          {
            "astId": 3852,
            "contract": "contracts/SourceChainInitiator.sol:SourceChainInitiator",
            "label": "sent",
            "offset": 0,
            "slot": "6",
            "type": "t_bool"
          }
        ],
        "numberOfBytes": "224"
      },
      "t_uint256": {
        "encoding": "inplace",
        "label": "uint256",
        "numberOfBytes": "32"
      },
      "t_uint32": {
        "encoding": "inplace",
        "label": "uint32",
        "numberOfBytes": "4"
      }
    }
  }
}