{
  "address": "0x69C0eb2a68877b57c756976130099885dcf73d33",
  "abi": [
    {
      "inputs": [
        {
          "internalType": "address",
          "name": "_endpoint",
          "type": "address"
        },
        {
          "internalType": "address",
          "name": "_messageTransmitter",
          "type": "address"
        },
        {
          "internalType": "address",
          "name": "_owner",
          "type": "address"
        }
      ],
      "stateMutability": "nonpayable",
      "type": "constructor"
    },
    {
      "inputs": [],
      "name": "InvalidDelegate",
      "type": "error"
    },
    {
      "inputs": [],
      "name": "InvalidEndpointCall",
      "type": "error"
    },
    {
      "inputs": [],
      "name": "LzTokenUnavailable",
      "type": "error"
    },
    {
      "inputs": [
        {
          "internalType": "uint32",
          "name": "eid",
          "type": "uint32"
        }
      ],
      "name": "NoPeer",
      "type": "error"
    },
    {
      "inputs": [
        {
          "internalType": "uint256",
          "name": "msgValue",
          "type": "uint256"
        }
      ],
      "name": "NotEnoughNative",
      "type": "error"
    },
    {
      "inputs": [
        {
          "internalType": "address",
          "name": "addr",
          "type": "address"
        }
      ],
      "name": "OnlyEndpoint",
      "type": "error"
    },
    {
      "inputs": [
        {
          "internalType": "uint32",
          "name": "eid",
          "type": "uint32"
        },
        {
          "internalType": "bytes32",
          "name": "sender",
          "type": "bytes32"
        }
      ],
      "name": "OnlyPeer",
      "type": "error"
    },
    {
      "inputs": [
        {
          "internalType": "address",
          "name": "owner",
          "type": "address"
        }
      ],
      "name": "OwnableInvalidOwner",
      "type": "error"
    },
    {
      "inputs": [
        {
          "internalType": "address",
          "name": "account",
          "type": "address"
        }
      ],
      "name": "OwnableUnauthorizedAccount",
      "type": "error"
    },
    {
      "inputs": [
        {
          "internalType": "address",
          "name": "token",
          "type": "address"
        }
      ],
      "name": "SafeERC20FailedOperation",
      "type": "error"
    },
    {
      "anonymous": false,
      "inputs": [
        {
          "indexed": true,
          "internalType": "bytes32",
          "name": "requestId",
          "type": "bytes32"
        },
        {
          "indexed": true,
          "internalType": "address",
          "name": "user",
          "type": "address"
        },
        {
          "indexed": true,
          "internalType": "address",
          "name": "merchant",
          "type": "address"
        },
        {
          "indexed": false,
          "internalType": "uint256",
          "name": "targetAmount",
          "type": "uint256"
        }
      ],
      "name": "InstantAggregationInitiated",
      "type": "event"
    },
    {
      "anonymous": false,
      "inputs": [
        {
          "indexed": true,
          "internalType": "bytes32",
          "name": "requestId",
          "type": "bytes32"
        },
        {
          "indexed": true,
          "internalType": "address",
          "name": "merchant",
          "type": "address"
        },
        {
          "indexed": false,
          "internalType": "uint256",
          "name": "usdcAmount",
          "type": "uint256"
        },
        {
          "indexed": false,
          "internalType": "uint256",
          "name": "timeElapsed",
          "type": "uint256"
        }
      ],
      "name": "InstantSettlement",
      "type": "event"
    },
    {
      "anonymous": false,
      "inputs": [
        {
          "indexed": true,
          "internalType": "bytes32",
          "name": "requestId",
          "type": "bytes32"
        },
        {
          "indexed": true,
          "internalType": "uint32",
          "name": "sourceChain",
          "type": "uint32"
        },
        {
          "indexed": false,
          "internalType": "uint256",
          "name": "amount",
          "type": "uint256"
        },
        {
          "indexed": false,
          "internalType": "uint256",
          "name": "totalLocked",
          "type": "uint256"
        }
      ],
      "name": "LockConfirmed",
      "type": "event"
    },
    {
      "anonymous": false,
      "inputs": [
        {
          "indexed": true,
          "internalType": "address",
          "name": "previousOwner",
          "type": "address"
        },
        {
          "indexed": true,
          "internalType": "address",
          "name": "newOwner",
          "type": "address"
        }
      ],
      "name": "OwnershipTransferred",
      "type": "event"
    },
    {
      "anonymous": false,
      "inputs": [
        {
          "indexed": false,
          "internalType": "uint32",
          "name": "eid",
          "type": "uint32"
        },
        {
          "indexed": false,
          "internalType": "bytes32",
          "name": "peer",
          "type": "bytes32"
        }
      ],
      "name": "PeerSet",
      "type": "event"
    },
    {
      "anonymous": false,
      "inputs": [
        {
          "indexed": true,
          "internalType": "bytes32",
          "name": "requestId",
          "type": "bytes32"
        },
        {
          "indexed": true,
          "internalType": "address",
          "name": "tokenIn",
          "type": "address"
        },
        {
          "indexed": false,
          "internalType": "uint256",
          "name": "amountIn",
          "type": "uint256"
        },
        {
          "indexed": false,
          "internalType": "uint256",
          "name": "usdcOut",
          "type": "uint256"
        }
      ],
      "name": "TokenSwapped",
      "type": "event"
    },
    {
      "inputs": [
        {
          "components": [
            {
              "internalType": "uint32",
              "name": "srcEid",
              "type": "uint32"
            },
            {
              "internalType": "bytes32",
              "name": "sender",
              "type": "bytes32"
            },
            {
              "internalType": "uint64",
              "name": "nonce",
              "type": "uint64"
            }
          ],
          "internalType": "struct Origin",
          "name": "origin",
          "type": "tuple"
        }
      ],
      "name": "allowInitializePath",
      "outputs": [
        {
          "internalType": "bool",
          "name": "",
          "type": "bool"
        }
      ],
      "stateMutability": "view",
      "type": "function"
    },
    {
      "inputs": [
        {
          "internalType": "bytes32",
          "name": "requestId",
          "type": "bytes32"
        }
      ],
      "name": "canInstantSettle",
      "outputs": [
        {
          "internalType": "bool",
          "name": "",
          "type": "bool"
        }
      ],
      "stateMutability": "view",
      "type": "function"
    },
    {
      "inputs": [
        {
          "internalType": "address",
          "name": "token",
          "type": "address"
        },
        {
          "internalType": "address",
          "name": "to",
          "type": "address"
        },
        {
          "internalType": "uint256",
          "name": "amount",
          "type": "uint256"
        }
      ],
      "name": "emergencyWithdraw",
      "outputs": [],
      "stateMutability": "nonpayable",
      "type": "function"
    },
    {
      "inputs": [],
      "name": "endpoint",
      "outputs": [
        {
          "internalType": "contract ILayerZeroEndpointV2",
          "name": "",
          "type": "address"
        }
      ],
      "stateMutability": "view",
      "type": "function"
    },
    {
      "inputs": [
        {
          "internalType": "bytes32",
          "name": "",
          "type": "bytes32"
        },
        {
          "internalType": "uint32",
          "name": "",
          "type": "uint32"
        }
      ],
      "name": "expectedPerChain",
      "outputs": [
        {
          "internalType": "uint256",
          "name": "",
          "type": "uint256"
        }
      ],
      "stateMutability": "view",
      "type": "function"
    },
    {
      "inputs": [
        {
          "internalType": "bytes32",
          "name": "requestId",
          "type": "bytes32"
        },
        {
          "internalType": "uint32",
          "name": "chainEid",
          "type": "uint32"
        }
      ],
      "name": "getLockedAmount",
      "outputs": [
        {
          "internalType": "uint256",
          "name": "",
          "type": "uint256"
        }
      ],
      "stateMutability": "view",
      "type": "function"
    },
    {
      "inputs": [
        {
          "internalType": "bytes32",
          "name": "requestId",
          "type": "bytes32"
        }
      ],
      "name": "getRequest",
      "outputs": [
        {
          "components": [
            {
              "internalType": "bytes32",
              "name": "requestId",
              "type": "bytes32"
            },
            {
              "internalType": "address",
              "name": "user",
              "type": "address"
            },
            {
              "internalType": "address",
              "name": "merchant",
              "type": "address"
            },
            {
              "internalType": "uint256",
              "name": "targetAmount",
              "type": "uint256"
            },
            {
              "internalType": "uint256",
              "name": "totalLocked",
              "type": "uint256"
            },
            {
              "internalType": "uint32",
              "name": "destinationChain",
              "type": "uint32"
            },
            {
              "internalType": "uint32",
              "name": "refundChain",
              "type": "uint32"
            },
            {
              "internalType": "uint256",
              "name": "deadline",
              "type": "uint256"
            },
            {
              "internalType": "uint256",
              "name": "refundGasDeposit",
              "type": "uint256"
            },
            {
              "internalType": "enum InstantAggregator.SettlementStatus",
              "name": "status",
              "type": "uint8"
            },
            {
              "internalType": "bool",
              "name": "exists",
              "type": "bool"
            },
            {
              "internalType": "uint256",
              "name": "usdcSettledAmount",
              "type": "uint256"
            }
          ],
          "internalType": "struct InstantAggregator.InstantAggregationRequest",
          "name": "",
          "type": "tuple"
        }
      ],
      "stateMutability": "view",
      "type": "function"
    },
    {
      "inputs": [
        {
          "internalType": "uint32",
          "name": "",
          "type": "uint32"
        },
        {
          "internalType": "bytes32",
          "name": "",
          "type": "bytes32"
        },
        {
          "internalType": "bytes",
          "name": "messageBody",
          "type": "bytes"
        }
      ],
      "name": "handleReceiveMessage",
      "outputs": [
        {
          "internalType": "bool",
          "name": "",
          "type": "bool"
        }
      ],
      "stateMutability": "nonpayable",
      "type": "function"
    },
    {
      "inputs": [
        {
          "internalType": "address",
          "name": "merchant",
          "type": "address"
        },
        {
          "internalType": "uint256",
          "name": "targetAmount",
          "type": "uint256"
        },
        {
          "internalType": "uint32",
          "name": "refundChain",
          "type": "uint32"
        },
        {
          "internalType": "uint32[]",
          "name": "sourceChains",
          "type": "uint32[]"
        },
        {
          "internalType": "uint256[]",
          "name": "expectedAmounts",
          "type": "uint256[]"
        }
      ],
      "name": "initiateInstantAggregation",
      "outputs": [
        {
          "internalType": "bytes32",
          "name": "requestId",
          "type": "bytes32"
        }
      ],
      "stateMutability": "payable",
      "type": "function"
    },
    {
      "inputs": [
        {
          "components": [
            {
              "internalType": "uint32",
              "name": "srcEid",
              "type": "uint32"
            },
            {
              "internalType": "bytes32",
              "name": "sender",
              "type": "bytes32"
            },
            {
              "internalType": "uint64",
              "name": "nonce",
              "type": "uint64"
            }
          ],
          "internalType": "struct Origin",
          "name": "",
          "type": "tuple"
        },
        {
          "internalType": "bytes",
          "name": "",
          "type": "bytes"
        },
        {
          "internalType": "address",
          "name": "_sender",
          "type": "address"
        }
      ],
      "name": "isComposeMsgSender",
      "outputs": [
        {
          "internalType": "bool",
          "name": "",
          "type": "bool"
        }
      ],
      "stateMutability": "view",
      "type": "function"
    },
    {
      "inputs": [
        {
          "internalType": "bytes32",
          "name": "",
          "type": "bytes32"
        },
        {
          "internalType": "uint32",
          "name": "",
          "type": "uint32"
        }
      ],
      "name": "lockedPerChain",
      "outputs": [
        {
          "internalType": "uint256",
          "name": "",
          "type": "uint256"
        }
      ],
      "stateMutability": "view",
      "type": "function"
    },
    {
      "inputs": [
        {
          "components": [
            {
              "internalType": "uint32",
              "name": "srcEid",
              "type": "uint32"
            },
            {
              "internalType": "bytes32",
              "name": "sender",
              "type": "bytes32"
            },
            {
              "internalType": "uint64",
              "name": "nonce",
              "type": "uint64"
            }
          ],
          "internalType": "struct Origin",
          "name": "_origin",
          "type": "tuple"
        },
        {
          "internalType": "bytes32",
          "name": "_guid",
          "type": "bytes32"
        },
        {
          "internalType": "bytes",
          "name": "_message",
          "type": "bytes"
        },
        {
          "internalType": "address",
          "name": "_executor",
          "type": "address"
        },
        {
          "internalType": "bytes",
          "name": "_extraData",
          "type": "bytes"
        }
      ],
      "name": "lzReceive",
      "outputs": [],
      "stateMutability": "payable",
      "type": "function"
    },
    {
      "inputs": [],
      "name": "messageTransmitter",
      "outputs": [
        {
          "internalType": "address",
          "name": "",
          "type": "address"
        }
      ],
      "stateMutability": "view",
      "type": "function"
    },
    {
      "inputs": [
        {
          "internalType": "uint32",
          "name": "",
          "type": "uint32"
        },
        {
          "internalType": "bytes32",
          "name": "",
          "type": "bytes32"
        }
      ],
      "name": "nextNonce",
      "outputs": [
        {
          "internalType": "uint64",
          "name": "nonce",
          "type": "uint64"
        }
      ],
      "stateMutability": "view",
      "type": "function"
    },
    {
      "inputs": [],
      "name": "oAppVersion",
      "outputs": [
        {
          "internalType": "uint64",
          "name": "senderVersion",
          "type": "uint64"
        },
        {
          "internalType": "uint64",
          "name": "receiverVersion",
          "type": "uint64"
        }
      ],
      "stateMutability": "pure",
      "type": "function"
    },
    {
      "inputs": [],
      "name": "owner",
      "outputs": [
        {
          "internalType": "address",
          "name": "",
          "type": "address"
        }
      ],
      "stateMutability": "view",
      "type": "function"
    },
    {
      "inputs": [
        {
          "internalType": "uint32",
          "name": "eid",
          "type": "uint32"
        }
      ],
      "name": "peers",
      "outputs": [
        {
          "internalType": "bytes32",
          "name": "peer",
          "type": "bytes32"
        }
      ],
      "stateMutability": "view",
      "type": "function"
    },
    {
      "inputs": [
        {
          "internalType": "bytes32",
          "name": "requestId",
          "type": "bytes32"
        },
        {
          "internalType": "uint256",
          "name": "amount",
          "type": "uint256"
        }
      ],
      "name": "recordDirectPayment",
      "outputs": [],
      "stateMutability": "nonpayable",
      "type": "function"
    },
    {
      "inputs": [],
      "name": "renounceOwnership",
      "outputs": [],
      "stateMutability": "nonpayable",
      "type": "function"
    },
    {
      "inputs": [
        {
          "internalType": "bytes32",
          "name": "",
          "type": "bytes32"
        }
      ],
      "name": "requests",
      "outputs": [
        {
          "internalType": "bytes32",
          "name": "requestId",
          "type": "bytes32"
        },
        {
          "internalType": "address",
          "name": "user",
          "type": "address"
        },
        {
          "internalType": "address",
          "name": "merchant",
          "type": "address"
        },
        {
          "internalType": "uint256",
          "name": "targetAmount",
          "type": "uint256"
        },
        {
          "internalType": "uint256",
          "name": "totalLocked",
          "type": "uint256"
        },
        {
          "internalType": "uint32",
          "name": "destinationChain",
          "type": "uint32"
        },
        {
          "internalType": "uint32",
          "name": "refundChain",
          "type": "uint32"
        },
        {
          "internalType": "uint256",
          "name": "deadline",
          "type": "uint256"
        },
        {
          "internalType": "uint256",
          "name": "refundGasDeposit",
          "type": "uint256"
        },
        {
          "internalType": "enum InstantAggregator.SettlementStatus",
          "name": "status",
          "type": "uint8"
        },
        {
          "internalType": "bool",
          "name": "exists",
          "type": "bool"
        },
        {
          "internalType": "uint256",
          "name": "usdcSettledAmount",
          "type": "uint256"
        }
      ],
      "stateMutability": "view",
      "type": "function"
    },
    {
      "inputs": [
        {
          "internalType": "address",
          "name": "_delegate",
          "type": "address"
        }
      ],
      "name": "setDelegate",
      "outputs": [],
      "stateMutability": "nonpayable",
      "type": "function"
    },
    {
      "inputs": [
        {
          "internalType": "uint32",
          "name": "_eid",
          "type": "uint32"
        },
        {
          "internalType": "bytes32",
          "name": "_peer",
          "type": "bytes32"
        }
      ],
      "name": "setPeer",
      "outputs": [],
      "stateMutability": "nonpayable",
      "type": "function"
    },
    {
      "inputs": [
        {
          "internalType": "address",
          "name": "_swapRouter",
          "type": "address"
        },
        {
          "internalType": "address",
          "name": "_usdcToken",
          "type": "address"
        }
      ],
      "name": "setSwapConfig",
      "outputs": [],
      "stateMutability": "nonpayable",
      "type": "function"
    },
    {
      "inputs": [],
      "name": "swapRouter",
      "outputs": [
        {
          "internalType": "address",
          "name": "",
          "type": "address"
        }
      ],
      "stateMutability": "view",
      "type": "function"
    },
    {
      "inputs": [
        {
          "internalType": "address",
          "name": "newOwner",
          "type": "address"
        }
      ],
      "name": "transferOwnership",
      "outputs": [],
      "stateMutability": "nonpayable",
      "type": "function"
    },
    {
      "inputs": [],
      "name": "usdcToken",
      "outputs": [
        {
          "internalType": "address",
          "name": "",
          "type": "address"
        }
      ],
      "stateMutability": "view",
      "type": "function"
    },
    {
      "stateMutability": "payable",
      "type": "receive"
    }
  ],
  "transactionHash": "0x498eddc08781420c408429b34c8a5c6c64d0490dd808522f8ea206ed73e9b727",
  "args": [
    "0x6EDCE65403992e310A62460808c4b910D972f10f",
    "0x7865fAfC2db2093669d92c0F33AeEF291086BEFD",
    "0x5C8A5483bCDB51F858a9cF4a647dF6D34fdDf81c"
  ],
  "numDeployments": 1,
  "solcInputHash": "5ae45d0bd09e265b870044419c9f05ac",
  "bytecode": "0x60a06040523480156200001157600080fd5b506040516200215c3803806200215c8339810160408190526200003491620001f7565b82818181806001600160a01b0381166200006957604051631e4fbdf760e01b8152600060048201526024015b60405180910390fd5b62000074816200018a565b506001600160a01b038083166080528116620000a357604051632d618d8160e21b815260040160405180910390fd5b60805160405163ca5eb5e160e01b81526001600160a01b0383811660048301529091169063ca5eb5e190602401600060405180830381600087803b158015620000eb57600080fd5b505af115801562000100573d6000803e3d6000fd5b5050506001600160a01b03871694506200016293505050505760405162461bcd60e51b815260206004820152601a60248201527f496e76616c6964204d6573736167655472616e736d6974746572000000000000604482015260640162000060565b50600280546001600160a01b0319166001600160a01b03929092169190911790555062000241565b600080546001600160a01b038381166001600160a01b0319831681178455604051919092169283917f8be0079c531659141344cd1fd0a4f28419497f9722a3daafe3b4186f6b6457e09190a35050565b80516001600160a01b0381168114620001f257600080fd5b919050565b6000806000606084860312156200020d57600080fd5b6200021884620001da565b92506200022860208501620001da565b91506200023860408501620001da565b90509250925092565b608051611edc62000280600039600081816102d50152818161062001528181610b7e01528181610e5101528181611143015261128e0152611edc6000f3fe6080604052600436106101a55760003560e01c80638da5cb5b116100e1578063ca5eb5e11161008a578063e63ea40811610064578063e63ea40814610591578063f2fde38b146105b1578063fb1e61ca146105d1578063ff7bd03d146105fe57600080fd5b8063ca5eb5e114610519578063d8d9070a14610539578063e50418eb1461055957600080fd5b8063a339fb6b116100bb578063a339fb6b146104b9578063bb0b6a53146104cc578063c31c9c07146104f957600080fd5b80638da5cb5b146103cf57806396abeb70146103ed5780639d8669851461040d57600080fd5b80633ef803641161014e5780637b04c181116101285780637b04c1811461030c5780637d25a05e1461032c57806382413eac1461036857806383fa54361461039757600080fd5b80633ef80364146102935780635e280f11146102c3578063715018a6146102f757600080fd5b8063285ee61f1161017f578063285ee61f146102255780633400288b146102535780633e03c0621461027357600080fd5b806311eac855146101b157806313137d65146101ee57806317442b701461020357600080fd5b366101ac57005b600080fd5b3480156101bd57600080fd5b506004546101d1906001600160a01b031681565b6040516001600160a01b0390911681526020015b60405180910390f35b6102016101fc366004611902565b61061e565b005b34801561020f57600080fd5b50604080516001815260026020820152016101e5565b34801561023157600080fd5b506102456102403660046119b3565b610701565b6040519081526020016101e5565b34801561025f57600080fd5b5061020161026e3660046119e3565b610728565b34801561027f57600080fd5b5061020161028e366004611a0f565b61073e565b34801561029f57600080fd5b506102b36102ae366004611a42565b61082d565b60405190151581526020016101e5565b3480156102cf57600080fd5b506101d17f000000000000000000000000000000000000000000000000000000000000000081565b34801561030357600080fd5b50610201610932565b34801561031857600080fd5b506002546101d1906001600160a01b031681565b34801561033857600080fd5b5061034f6103473660046119e3565b600092915050565b60405167ffffffffffffffff90911681526020016101e5565b34801561037457600080fd5b506102b3610383366004611a5b565b6001600160a01b0381163014949350505050565b3480156103a357600080fd5b506102456103b23660046119b3565b600660209081526000928352604080842090915290825290205481565b3480156103db57600080fd5b506000546001600160a01b03166101d1565b3480156103f957600080fd5b506102b3610408366004611ac1565b610946565b34801561041957600080fd5b506104a1610428366004611a42565b6005602081905260009182526040909120805460018201546002830154600384015460048501549585015460068601546007870154600888015460099098015496986001600160a01b03968716989690951696939563ffffffff80851695640100000000909504169360ff80831692610100900416908c565b6040516101e59c9b9a99989796959493929190611b55565b6102456104c7366004611c14565b610c81565b3480156104d857600080fd5b506102456104e7366004611c9e565b60016020526000908152604090205481565b34801561050557600080fd5b506003546101d1906001600160a01b031681565b34801561052557600080fd5b50610201610534366004611cbb565b611103565b34801561054557600080fd5b50610201610554366004611cd6565b6111a2565b34801561056557600080fd5b506102456105743660046119b3565b600760209081526000928352604080842090915290825290205481565b34801561059d57600080fd5b506102016105ac366004611cf8565b611388565b3480156105bd57600080fd5b506102016105cc366004611cbb565b6113a4565b3480156105dd57600080fd5b506105f16105ec366004611a42565b6113fb565b6040516101e59190611d34565b34801561060a57600080fd5b506102b3610619366004611e02565b611545565b7f00000000000000000000000000000000000000000000000000000000000000006001600160a01b03163314610687576040517f91ac5e4f0000000000000000000000000000000000000000000000000000000081523360048201526024015b60405180910390fd5b602087018035906106a19061069c908a611c9e565b61157b565b146106f8576106b36020880188611c9e565b6040517fc26bebcc00000000000000000000000000000000000000000000000000000000815263ffffffff90911660048201526020880135602482015260440161067e565b50505050505050565b600082815260066020908152604080832063ffffffff851684529091529020545b92915050565b6107306115d0565b61073a8282611616565b5050565b6107466115d0565b6001600160a01b03821661079c5760405162461bcd60e51b815260206004820152601360248201527f496e76616c6964207377617020726f7574657200000000000000000000000000604482015260640161067e565b6001600160a01b0381166107f25760405162461bcd60e51b815260206004820152601260248201527f496e76616c6964205553444320746f6b656e0000000000000000000000000000604482015260640161067e565b600380546001600160a01b0393841673ffffffffffffffffffffffffffffffffffffffff199182161790915560048054929093169116179055565b60008181526005602081815260408084208151610180810183528154815260018201546001600160a01b03908116948201949094526002820154909316918301919091526003808201546060840152600482015460808401529281015463ffffffff80821660a08501526401000000009091041660c0830152600681015460e083015260078101546101008301526008810154849361012084019160ff16908111156108db576108db611b1d565b60038111156108ec576108ec611b1d565b81526008820154610100900460ff16151560208201526009909101546040909101526060810151608082015191925014801561092b5750610160810151155b9392505050565b61093a6115d0565b610944600061166b565b565b6002546000906001600160a01b031633146109a35760405162461bcd60e51b815260206004820152601760248201527f4f6e6c79204d6573736167655472616e736d6974746572000000000000000000604482015260640161067e565b60006109b183850185611a42565b6000818152600560205260409020600881015491925090610100900460ff16610a1c5760405162461bcd60e51b815260206004820152601160248201527f52657175657374206e6f7420666f756e64000000000000000000000000000000604482015260640161067e565b6000600882015460ff166003811115610a3757610a37611b1d565b14610a845760405162461bcd60e51b815260206004820152600e60248201527f496e76616c696420737461747573000000000000000000000000000000000000604482015260640161067e565b600480546040517f70a0823100000000000000000000000000000000000000000000000000000000815230928101929092526000916001600160a01b03909116906370a0823190602401602060405180830381865afa158015610aeb573d6000803e3d6000fd5b505050506040513d601f19601f82011682018060405250810190610b0f9190611e1e565b905060008111610b615760405162461bcd60e51b815260206004820152601060248201527f4e6f205553444320726563656976656400000000000000000000000000000000604482015260640161067e565b80826004016000828254610b759190611e4d565b925050819055507f00000000000000000000000000000000000000000000000000000000000000006001600160a01b031663416ecebf6040518163ffffffff1660e01b8152600401602060405180830381865afa158015610bda573d6000803e3d6000fd5b505050506040513d601f19601f82011682018060405250810190610bfe9190611e60565b63ffffffff16837f5250e89d6040e30a574e249d69e2648763fb4c0fc19eecbc588336492c5070c2838560040154604051610c43929190918252602082015260400190565b60405180910390a381600301548260040154148015610c6457506009820154155b15610c7357610c7383426116c8565b506001979650505050505050565b60006001600160a01b038816610cd95760405162461bcd60e51b815260206004820152601060248201527f496e76616c6964206d65726368616e7400000000000000000000000000000000604482015260640161067e565b60008711610d295760405162461bcd60e51b815260206004820152600e60248201527f496e76616c696420616d6f756e74000000000000000000000000000000000000604482015260640161067e565b838214610d785760405162461bcd60e51b815260206004820152600f60248201527f4c656e677468206d69736d617463680000000000000000000000000000000000604482015260640161067e565b662386f26fc10000341015610dcf5760405162461bcd60e51b815260206004820152601760248201527f496e73756666696369656e7420726566756e6420676173000000000000000000604482015260640161067e565b604080513360208201526001600160a01b038a16918101919091526060810188905242608082015260a001604051602081830303815290604052805190602001209050604051806101800160405280828152602001336001600160a01b03168152602001896001600160a01b03168152602001888152602001600081526020017f00000000000000000000000000000000000000000000000000000000000000006001600160a01b031663416ecebf6040518163ffffffff1660e01b8152600401602060405180830381865afa158015610ead573d6000803e3d6000fd5b505050506040513d601f19601f82011682018060405250810190610ed19190611e60565b63ffffffff908116825288166020820152604001610ef04260b4611e4d565b8152346020820152604001600081526001602080830182905260006040938401819052858152600580835290849020855181559185015182840180546001600160a01b0392831673ffffffffffffffffffffffffffffffffffffffff1991821617909155948601516002840180549190921695169490941790935560608401516003808301919091556080850151600483015560a0850151938201805460c087015163ffffffff9081166401000000000267ffffffffffffffff199092169616959095179490941790935560e08401516006820155610100840151600782015561012084015160088201805492949193909260ff1916918490811115610ff857610ff8611b1d565b02179055506101408201516008820180549115156101000261ff00199092169190911790556101609091015160099091015560005b848110156110a95783838281811061104757611047611e7d565b9050602002013560076000848152602001908152602001600020600088888581811061107557611075611e7d565b905060200201602081019061108a9190611c9e565b63ffffffff16815260208101919091526040016000205560010161102d565b50876001600160a01b0316336001600160a01b0316827f910c91920adddf477c32bdb1375872b89041c5894899bf3c36dcb7bc7ac3aa868a6040516110f091815260200190565b60405180910390a4979650505050505050565b61110b6115d0565b6040517fca5eb5e10000000000000000000000000000000000000000000000000000000081526001600160a01b0382811660048301527f0000000000000000000000000000000000000000000000000000000000000000169063ca5eb5e190602401600060405180830381600087803b15801561118757600080fd5b505af115801561119b573d6000803e3d6000fd5b5050505050565b60008281526005602052604090206008810154610100900460ff166112095760405162461bcd60e51b815260206004820152601160248201527f52657175657374206e6f7420666f756e64000000000000000000000000000000604482015260640161067e565b6000600882015460ff16600381111561122457611224611b1d565b146112715760405162461bcd60e51b815260206004820152600e60248201527f496e76616c696420737461747573000000000000000000000000000000000000604482015260640161067e565b818160040160008282546112859190611e4d565b925050819055507f00000000000000000000000000000000000000000000000000000000000000006001600160a01b031663416ecebf6040518163ffffffff1660e01b8152600401602060405180830381865afa1580156112ea573d6000803e3d6000fd5b505050506040513d601f19601f8201168201806040525081019061130e9190611e60565b63ffffffff16837f5250e89d6040e30a574e249d69e2648763fb4c0fc19eecbc588336492c5070c2848460040154604051611353929190918252602082015260400190565b60405180910390a38060030154816004015414801561137457506009810154155b156113835761138383426116c8565b505050565b6113906115d0565b6113836001600160a01b038416838361177a565b6113ac6115d0565b6001600160a01b0381166113ef576040517f1e4fbdf70000000000000000000000000000000000000000000000000000000081526000600482015260240161067e565b6113f88161166b565b50565b6040805161018081018252600080825260208201819052918101829052606081018290526080810182905260a0810182905260c0810182905260e081018290526101008101829052610120810182905261014081018290526101608101919091526000828152600560208181526040928390208351610180810185528154815260018201546001600160a01b03908116938201939093526002820154909216938201939093526003808401546060830152600484015460808301529183015463ffffffff80821660a08401526401000000009091041660c0820152600683015460e08201526007830154610100820152600883015490929161012084019160ff169081111561150c5761150c611b1d565b600381111561151d5761151d611b1d565b81526008820154610100900460ff161515602082015260099091015460409091015292915050565b600060208201803590600190839061155d9086611c9e565b63ffffffff1681526020810191909152604001600020541492915050565b63ffffffff811660009081526001602052604081205480610722576040517ff6ff4fb700000000000000000000000000000000000000000000000000000000815263ffffffff8416600482015260240161067e565b6000546001600160a01b03163314610944576040517f118cdaa700000000000000000000000000000000000000000000000000000000815233600482015260240161067e565b63ffffffff8216600081815260016020908152604091829020849055815192835282018390527f238399d427b947898edb290f5ff0f9109849b1c3ba196a42e35f00c50a54b98b910160405180910390a15050565b600080546001600160a01b0383811673ffffffffffffffffffffffffffffffffffffffff19831681178455604051919092169283917f8be0079c531659141344cd1fd0a4f28419497f9722a3daafe3b4186f6b6457e09190a35050565b6000828152600560205260409020600281015460048083015490546116fb926001600160a01b039182169291169061177a565b6004810154600982015560088101805460ff1916600117905560006117208342611e93565b6002830154600484015460408051918252602082018490529293506001600160a01b039091169186917f1cb80bdd556de04fa6e50cdbc03a87f9069012fdbcb2b687a193f72c255d83f8910160405180910390a350505050565b604080516001600160a01b03841660248201526044808201849052825180830390910181526064909101909152602080820180517bffffffffffffffffffffffffffffffffffffffffffffffffffffffff167fa9059cbb000000000000000000000000000000000000000000000000000000001781528251611383938793909260009283929183919082885af180611818576040513d6000823e3d81fd5b50506000513d9150811561183057806001141561183d565b6001600160a01b0384163b155b1561187f576040517f5274afe70000000000000000000000000000000000000000000000000000000081526001600160a01b038516600482015260240161067e565b50505050565b60006060828403121561189757600080fd5b50919050565b60008083601f8401126118af57600080fd5b50813567ffffffffffffffff8111156118c757600080fd5b6020830191508360208285010111156118df57600080fd5b9250929050565b80356001600160a01b03811681146118fd57600080fd5b919050565b600080600080600080600060e0888a03121561191d57600080fd5b6119278989611885565b965060608801359550608088013567ffffffffffffffff8082111561194b57600080fd5b6119578b838c0161189d565b909750955085915061196b60a08b016118e6565b945060c08a013591508082111561198157600080fd5b5061198e8a828b0161189d565b989b979a50959850939692959293505050565b63ffffffff811681146113f857600080fd5b600080604083850312156119c657600080fd5b8235915060208301356119d8816119a1565b809150509250929050565b600080604083850312156119f657600080fd5b8235611a01816119a1565b946020939093013593505050565b60008060408385031215611a2257600080fd5b611a2b836118e6565b9150611a39602084016118e6565b90509250929050565b600060208284031215611a5457600080fd5b5035919050565b60008060008060a08587031215611a7157600080fd5b611a7b8686611885565b9350606085013567ffffffffffffffff811115611a9757600080fd5b611aa38782880161189d565b9094509250611ab69050608086016118e6565b905092959194509250565b60008060008060608587031215611ad757600080fd5b8435611ae2816119a1565b935060208501359250604085013567ffffffffffffffff811115611b0557600080fd5b611b118782880161189d565b95989497509550505050565b634e487b7160e01b600052602160045260246000fd5b60048110611b5157634e487b7160e01b600052602160045260246000fd5b9052565b8c81526001600160a01b038c811660208301528b166040820152606081018a90526080810189905263ffffffff88811660a0830152871660c082015260e0810186905261010081018590526101808101611bb3610120830186611b33565b92151561014082015261016001529a9950505050505050505050565b60008083601f840112611be157600080fd5b50813567ffffffffffffffff811115611bf957600080fd5b6020830191508360208260051b85010111156118df57600080fd5b600080600080600080600060a0888a031215611c2f57600080fd5b611c38886118e6565b9650602088013595506040880135611c4f816119a1565b9450606088013567ffffffffffffffff80821115611c6c57600080fd5b611c788b838c01611bcf565b909650945060808a0135915080821115611c9157600080fd5b5061198e8a828b01611bcf565b600060208284031215611cb057600080fd5b813561092b816119a1565b600060208284031215611ccd57600080fd5b61092b826118e6565b60008060408385031215611ce957600080fd5b50508035926020909101359150565b600080600060608486031215611d0d57600080fd5b611d16846118e6565b9250611d24602085016118e6565b9150604084013590509250925092565b81518152602080830151610180830191611d58908401826001600160a01b03169052565b506040830151611d7360408401826001600160a01b03169052565b50606083015160608301526080830151608083015260a0830151611d9f60a084018263ffffffff169052565b5060c0830151611db760c084018263ffffffff169052565b5060e083015160e083015261010080840151818401525061012080840151611de182850182611b33565b50506101408381015180151584830152505061016092830151919092015290565b600060608284031215611e1457600080fd5b61092b8383611885565b600060208284031215611e3057600080fd5b5051919050565b634e487b7160e01b600052601160045260246000fd5b8082018082111561072257610722611e37565b600060208284031215611e7257600080fd5b815161092b816119a1565b634e487b7160e01b600052603260045260246000fd5b8181038181111561072257610722611e3756fea26469706673582212204824206f3b179bdf153401501c70b322ccbd65b6222e2b72af9963334a2852a164736f6c63430008160033",
  "devdoc": {
    "details": "Key innovation: Transfer USDC immediately when ALL payments confirmed via CCTP Speed comparison: - Traditional aggregation: 10-15 minutes (wait for all USDC to arrive) - CCTP aggregation: 1-2 minutes (Circle mints USDC directly to this contract) Flow: 1. Scan user balances across chains to determine exact amounts 2. User sends USDC from all source chains via SourceChainInitiator 3. SourceChainInitiator burns USDC via CCTP with hookData containing requestId 4. Circle mints USDC to this contract with handleReceiveMessage hook 5. When FULL amount received (100%), INSTANTLY transfer USDC to merchant 6. Merchant receives native USDC in ~2 minutes With CCTP: - USDC burned on source chains, minted natively on destination - Merchant receives native USDC (not wrapped) - No OFT Adapter issues - Circle handles everything No Partial Payments: - Must receive exact target amount (100%) - If deadline expires without full amount, request fails - All-or-nothing settlement",
    "errors": {
      "OwnableInvalidOwner(address)": [
        {
          "details": "The owner is not a valid owner account. (eg. `address(0)`)"
        }
      ],
      "OwnableUnauthorizedAccount(address)": [
        {
          "details": "The caller account is not authorized to perform an operation."
        }
      ],
      "SafeERC20FailedOperation(address)": [
        {
          "details": "An operation with an ERC-20 token failed."
        }
      ]
    },
    "kind": "dev",
    "methods": {
      "allowInitializePath((uint32,bytes32,uint64))": {
        "details": "This indicates to the endpoint that the OApp has enabled msgs for this particular path to be received.This defaults to assuming if a peer has been set, its initialized. Can be overridden by the OApp if there is other logic to determine this.",
        "params": {
          "origin": "The origin information containing the source endpoint and sender address."
        },
        "returns": {
          "_0": "Whether the path has been initialized."
        }
      },
      "constructor": {
        "params": {
          "_endpoint": "LayerZero endpoint (for future cross-chain messages if needed)",
          "_messageTransmitter": "Circle CCTP MessageTransmitter address",
          "_owner": "Contract owner"
        }
      },
      "handleReceiveMessage(uint32,bytes32,bytes)": {
        "details": "Called by Circle's MessageTransmitter after minting USDC to this contract Flow: 1. User burns USDC on source chain via SourceChainInitiator 2. SourceChainInitiator includes requestId in hookData 3. Circle mints USDC to this contract 4. Circle calls this function with hookData 5. We decode requestId and add USDC to aggregation 6. If threshold met, instantly settle to merchant"
      },
      "initiateInstantAggregation(address,uint256,uint32,uint32[],uint256[])": {
        "details": "Agent calls this first, then sends lock messages to source chains"
      },
      "isComposeMsgSender((uint32,bytes32,uint64),bytes,address)": {
        "details": "_origin The origin information containing the source endpoint and sender address.  - srcEid: The source chain endpoint ID.  - sender: The sender address on the src chain.  - nonce: The nonce of the message._message The lzReceive payload.Applications can optionally choose to implement separate composeMsg senders that are NOT the bridging layer.The default sender IS the OAppReceiver implementer.",
        "params": {
          "_sender": "The sender address."
        },
        "returns": {
          "_0": "isSender Is a valid sender."
        }
      },
      "lzReceive((uint32,bytes32,uint64),bytes32,bytes,address,bytes)": {
        "details": "Entry point for receiving messages or packets from the endpoint.Entry point for receiving msg/packet from the LayerZero endpoint.",
        "params": {
          "_executor": "The address of the executor for the received message.",
          "_extraData": "Additional arbitrary data provided by the corresponding executor.",
          "_guid": "The unique identifier for the received LayerZero message.",
          "_message": "The payload of the received message.",
          "_origin": "The origin information containing the source endpoint and sender address.  - srcEid: The source chain endpoint ID.  - sender: The sender address on the src chain.  - nonce: The nonce of the message."
        }
      },
      "nextNonce(uint32,bytes32)": {
        "details": "_srcEid The source endpoint ID._sender The sender address.The path nonce starts from 1. If 0 is returned it means that there is NO nonce ordered enforcement.Is required by the off-chain executor to determine the OApp expects msg execution is ordered.This is also enforced by the OApp.By default this is NOT enabled. ie. nextNonce is hardcoded to return 0.",
        "returns": {
          "nonce": "The next nonce."
        }
      },
      "oAppVersion()": {
        "returns": {
          "receiverVersion": "The version of the OAppReceiver.sol implementation.",
          "senderVersion": "The version of the OAppSender.sol implementation."
        }
      },
      "owner()": {
        "details": "Returns the address of the current owner."
      },
      "recordDirectPayment(bytes32,uint256)": {
        "details": "Called by SourceChainInitiator when source and destination are the same chain",
        "params": {
          "amount": "Amount of USDC received (already transferred to this contract)",
          "requestId": "The aggregation request ID"
        }
      },
      "renounceOwnership()": {
        "details": "Leaves the contract without owner. It will not be possible to call `onlyOwner` functions. Can only be called by the current owner. NOTE: Renouncing ownership will leave the contract without an owner, thereby disabling any functionality that is only available to the owner."
      },
      "setDelegate(address)": {
        "details": "Only the owner/admin of the OApp can call this function.Provides the ability for a delegate to set configs, on behalf of the OApp, directly on the Endpoint contract.",
        "params": {
          "_delegate": "The address of the delegate to be set."
        }
      },
      "setPeer(uint32,bytes32)": {
        "details": "Only the owner/admin of the OApp can call this function.Indicates that the peer is trusted to send LayerZero messages to this OApp.Set this to bytes32(0) to remove the peer address.Peer is a bytes32 to accommodate non-evm chains.",
        "params": {
          "_eid": "The endpoint ID.",
          "_peer": "The address of the peer to be associated with the corresponding endpoint."
        }
      },
      "setSwapConfig(address,address)": {
        "details": "Owner-only function to configure DEX integration"
      },
      "transferOwnership(address)": {
        "details": "Transfers ownership of the contract to a new account (`newOwner`). Can only be called by the current owner."
      }
    },
    "stateVariables": {
      "messageTransmitter": {
        "details": "Circle calls handleReceiveMessage on this contract after minting USDC"
      },
      "swapRouter": {
        "details": "Used to swap non-USDC tokens (ARB, ETH, etc.) to USDC on-chain"
      }
    },
    "title": "InstantAggregator",
    "version": 1
  },
  "userdoc": {
    "events": {
      "InstantAggregationInitiated(bytes32,address,address,uint256)": {
        "notice": "Events"
      }
    },
    "kind": "user",
    "methods": {
      "allowInitializePath((uint32,bytes32,uint64))": {
        "notice": "Checks if the path initialization is allowed based on the provided origin."
      },
      "canInstantSettle(bytes32)": {
        "notice": "Check if instant settlement is possible"
      },
      "constructor": {
        "notice": "Constructor"
      },
      "emergencyWithdraw(address,address,uint256)": {
        "notice": "Emergency withdraw"
      },
      "endpoint()": {
        "notice": "Retrieves the LayerZero endpoint associated with the OApp."
      },
      "expectedPerChain(bytes32,uint32)": {
        "notice": "Expected amounts per chain per request"
      },
      "getLockedAmount(bytes32,uint32)": {
        "notice": "Get locked amount per chain"
      },
      "getRequest(bytes32)": {
        "notice": "Get request details"
      },
      "handleReceiveMessage(uint32,bytes32,bytes)": {
        "notice": "CCTP Hook: Handle USDC receipt from Circle with hookData"
      },
      "initiateInstantAggregation(address,uint256,uint32,uint32[],uint256[])": {
        "notice": "Initiate instant aggregation"
      },
      "isComposeMsgSender((uint32,bytes32,uint64),bytes,address)": {
        "notice": "Indicates whether an address is an approved composeMsg sender to the Endpoint."
      },
      "lockedPerChain(bytes32,uint32)": {
        "notice": "Locked amounts per chain per request"
      },
      "messageTransmitter()": {
        "notice": "Circle CCTP MessageTransmitter for receiving USDC with hooks"
      },
      "nextNonce(uint32,bytes32)": {
        "notice": "Retrieves the next nonce for a given source endpoint and sender address."
      },
      "oAppVersion()": {
        "notice": "Retrieves the OApp version information."
      },
      "peers(uint32)": {
        "notice": "Retrieves the peer (OApp) associated with a corresponding endpoint."
      },
      "recordDirectPayment(bytes32,uint256)": {
        "notice": "Direct same-chain payment recording (no LayerZero needed)"
      },
      "requests(bytes32)": {
        "notice": "Requests mapping"
      },
      "setDelegate(address)": {
        "notice": "Sets the delegate address for the OApp."
      },
      "setPeer(uint32,bytes32)": {
        "notice": "Sets the peer address (OApp instance) for a corresponding endpoint."
      },
      "setSwapConfig(address,address)": {
        "notice": "Set swap router and USDC token addresses"
      },
      "swapRouter()": {
        "notice": "Uniswap V3 Swap Router for token swaps"
      },
      "usdcToken()": {
        "notice": "Native USDC token address"
      }
    },
    "notice": "FAST payment aggregation using Circle CCTP for instant settlement",
    "version": 1
  },
  "storageLayout": {
    "storage": [
      {
        "astId": 1327,
        "contract": "contracts/InstantAggregator.sol:InstantAggregator",
        "label": "_owner",
        "offset": 0,
        "slot": "0",
        "type": "t_address"
      },
      {
        "astId": 785,
        "contract": "contracts/InstantAggregator.sol:InstantAggregator",
        "label": "peers",
        "offset": 0,
        "slot": "1",
        "type": "t_mapping(t_uint32,t_bytes32)"
      },
      {
        "astId": 3023,
        "contract": "contracts/InstantAggregator.sol:InstantAggregator",
        "label": "messageTransmitter",
        "offset": 0,
        "slot": "2",
        "type": "t_address"
      },
      {
        "astId": 3026,
        "contract": "contracts/InstantAggregator.sol:InstantAggregator",
        "label": "swapRouter",
        "offset": 0,
        "slot": "3",
        "type": "t_address"
      },
      {
        "astId": 3029,
        "contract": "contracts/InstantAggregator.sol:InstantAggregator",
        "label": "usdcToken",
        "offset": 0,
        "slot": "4",
        "type": "t_address"
      },
      {
        "astId": 3035,
        "contract": "contracts/InstantAggregator.sol:InstantAggregator",
        "label": "requests",
        "offset": 0,
        "slot": "5",
        "type": "t_mapping(t_bytes32,t_struct(InstantAggregationRequest)3020_storage)"
      },
      {
        "astId": 3042,
        "contract": "contracts/InstantAggregator.sol:InstantAggregator",
        "label": "lockedPerChain",
        "offset": 0,
        "slot": "6",
        "type": "t_mapping(t_bytes32,t_mapping(t_uint32,t_uint256))"
      },
      {
        "astId": 3049,
        "contract": "contracts/InstantAggregator.sol:InstantAggregator",
        "label": "expectedPerChain",
        "offset": 0,
        "slot": "7",
        "type": "t_mapping(t_bytes32,t_mapping(t_uint32,t_uint256))"
      }
    ],
    "types": {
      "t_address": {
        "encoding": "inplace",
        "label": "address",
        "numberOfBytes": "20"
      },
      "t_bool": {
        "encoding": "inplace",
        "label": "bool",
        "numberOfBytes": "1"
      },
      "t_bytes32": {
        "encoding": "inplace",
        "label": "bytes32",
        "numberOfBytes": "32"
      },
      "t_enum(SettlementStatus)2993": {
        "encoding": "inplace",
        "label": "enum InstantAggregator.SettlementStatus",
        "numberOfBytes": "1"
      },
      "t_mapping(t_bytes32,t_mapping(t_uint32,t_uint256))": {
        "encoding": "mapping",
        "key": "t_bytes32",
        "label": "mapping(bytes32 => mapping(uint32 => uint256))",
        "numberOfBytes": "32",
        "value": "t_mapping(t_uint32,t_uint256)"
      },
      "t_mapping(t_bytes32,t_struct(InstantAggregationRequest)3020_storage)": {
        "encoding": "mapping",
        "key": "t_bytes32",
        "label": "mapping(bytes32 => struct InstantAggregator.InstantAggregationRequest)",
        "numberOfBytes": "32",
        "value": "t_struct(InstantAggregationRequest)3020_storage"
      },
      "t_mapping(t_uint32,t_bytes32)": {
        "encoding": "mapping",
        "key": "t_uint32",
        "label": "mapping(uint32 => bytes32)",
        "numberOfBytes": "32",
        "value": "t_bytes32"
      },
      "t_mapping(t_uint32,t_uint256)": {
        "encoding": "mapping",
        "key": "t_uint32",
        "label": "mapping(uint32 => uint256)",
        "numberOfBytes": "32",
        "value": "t_uint256"
      },
      "t_struct(InstantAggregationRequest)3020_storage": {
        "encoding": "inplace",
        "label": "struct InstantAggregator.InstantAggregationRequest",
        "members": [
          {
            "astId": 2996,
            "contract": "contracts/InstantAggregator.sol:InstantAggregator",
            "label": "requestId",
            "offset": 0,
            "slot": "0",
            "type": "t_bytes32"
          },
          {
            "astId": 2998,
            "contract": "contracts/InstantAggregator.sol:InstantAggregator",
            "label": "user",
            "offset": 0,
            "slot": "1",
            "type": "t_address"
          },
          {
            "astId": 3000,
            "contract": "contracts/InstantAggregator.sol:InstantAggregator",
            "label": "merchant",
            "offset": 0,
            "slot": "2",
            "type": "t_address"
          },
          {
            "astId": 3002,
            "contract": "contracts/InstantAggregator.sol:InstantAggregator",
            "label": "targetAmount",
            "offset": 0,
            "slot": "3",
            "type": "t_uint256"
          },
          {
            "astId": 3004,
            "contract": "contracts/InstantAggregator.sol:InstantAggregator",
            "label": "totalLocked",
            "offset": 0,
            "slot": "4",
            "type": "t_uint256"
          },
          {
            "astId": 3006,
            "contract": "contracts/InstantAggregator.sol:InstantAggregator",
            "label": "destinationChain",
            "offset": 0,
            "slot": "5",
            "type": "t_uint32"
          },
          {
            "astId": 3008,
            "contract": "contracts/InstantAggregator.sol:InstantAggregator",
            "label": "refundChain",
            "offset": 4,
            "slot": "5",
            "type": "t_uint32"
          },
          {
            "astId": 3010,
            "contract": "contracts/InstantAggregator.sol:InstantAggregator",
            "label": "deadline",
            "offset": 0,
            "slot": "6",
            "type": "t_uint256"
          },
          {
            "astId": 3012,
            "contract": "contracts/InstantAggregator.sol:InstantAggregator",
            "label": "refundGasDeposit",
            "offset": 0,
            "slot": "7",
            "type": "t_uint256"
          },
          {
            "astId": 3015,
            "contract": "contracts/InstantAggregator.sol:InstantAggregator",
            "label": "status",
            "offset": 0,
            "slot": "8",
            "type": "t_enum(SettlementStatus)2993"
          },
          {
            "astId": 3017,
            "contract": "contracts/InstantAggregator.sol:InstantAggregator",
            "label": "exists",
            "offset": 1,
            "slot": "8",
            "type": "t_bool"
          },
          {
            "astId": 3019,
            "contract": "contracts/InstantAggregator.sol:InstantAggregator",
            "label": "usdcSettledAmount",
            "offset": 0,
            "slot": "9",
            "type": "t_uint256"
          }
        ],
        "numberOfBytes": "320"
      },
      "t_uint256": {
        "encoding": "inplace",
        "label": "uint256",
        "numberOfBytes": "32"
      },
      "t_uint32": {
        "encoding": "inplace",
        "label": "uint32",
        "numberOfBytes": "4"
      }
    }
  }
}